:020000040800F2
:1000000000000220596F0008213800082F3800082E
:10001000353800083B38000841380008000000006F
:100020000000000000000000000000004738000849
:1000300055380008000000006338000871380008D7
:10004000A96F0008A96F0008A96F0008A96F000830
:10005000A96F0008A96F0008A96F0008A96F000820
:10006000A96F0008A96F0008A96F0008A96F000810
:10007000A96F0008A96F0008A96F0008A96F000800
:10008000A96F0008A96F0008A96F0008A96F0008F0
:10009000A96F0008A96F0008A96F0008A96F0008E0
:1000A000A96F00087D380008A96F0008A96F000833
:1000B00091380008A96F0008A96F0008A96F00080F
:1000C000A96F0008A96F0008A96F0008A96F0008B0
:1000D000A96F0008A96F0008A96F0008A96F0008A0
:1000E000A96F0008A96F0008A96F0008A96F000890
:1000F000A96F0008A96F0008A96F0008A96F000880
:10010000A96F0008A96F0008A5380008A96F0008AA
:10011000A96F0008A96F0008A96F0008A96F00085F
:10012000A96F0008A96F0008A96F0008A96F00084F
:10013000A96F00080000000000000000A96F00087F
:10014000A96F0008A96F0008A96F0008A96F00082F
:10015000A96F0008A96F0008A96F0008A96F00081F
:10016000A96F0008A96F0008A96F0008A96F00080F
:10017000A96F0008A96F000800000000000000003F
:08018000A96F0008A96F000837
:1001900010B5054C237833B9044B13B10448AFF3C1
:1001A00000800123237010BD7C00002000000000AF
:1001B0002C87000808B5034B1BB103490348AFF374
:1001C000008008BD00000000800000202C8700088F
:1001D00001F0FF01102A2BDB10F0070F08D010F8F8
:1001E000013B013A8B422DD010F0070F42B3F6D1FC
:1001F000F0B441EA012141EA014122F007047FF015
:1002000000070023F0E80256083C85EA010586EA6B
:10021000010685FA47F5A3FA87F586FA47F6A5FAA7
:1002200087F68EB9EED1F0BC01F0FF0102F00702B3
:1002300032B110F8013B013A83EA010313B1F8D15E
:100240000020704701387047002D06BF354603383F
:10025000073815F0010F07D1013015F4807F02BF78
:10026000013015F4C03F0130F0BC0138704700BFC9
:1002700010F8012B11F8013B012A28BF9A42F7D050
:10028000D01A704753B94AB9002908BF00281CBFCB
:100290004FF0FF314FF0FF3001F0F6B8ADF1080C30
:1002A0006DE904CE00F006F8DDF804E0DDE9022394
:1002B00004B070472DE9F0478C460D460446089E71
:1002C000002B51D18A4217466DD9B2FA82FEBEF197
:1002D000000F0BD0CEF1200C01FA0EF520FA0CFC29
:1002E00002FA0EF74CEA050C00FA0EF44FEA174A30
:1002F000250CBCFBFAF81FFA87F90AFB18CC45EA73
:100300000C4508FB09F3AB420AD9ED1908F1FF329D
:1003100080F02381AB4240F22081A8F102083D44E5
:10032000ED1AA4B2B5FBFAF00AFB105544EA0544F5
:1003300000FB09F9A14509D9E41900F1FF3380F068
:100340000A81A14540F2078102383C44A4EB09042C
:1003500040EA08400021002E61D024FA0EF4002368
:1003600034607360BDE8F0878B4207D9002E54D00B
:10037000002186E821000846BDE8F087B3FA83F142
:10038000002940F08E80AB4202D3824200F2FA8014
:10039000841A65EB03050120AC46002E3FD086E8A9
:1003A0001010BDE8F08712B90127B7FBF2F7B7FAD2
:1003B00087FEBEF1000F34D1EB1B3A0C1FFA87FC0D
:1003C0000121B3FBF2F8250C02FB183345EA034583
:1003D0000CFB08F3AB4207D9ED1908F1FF3002D24C
:1003E000AB4200F2D1808046ED1AA3B2B5FBF2F029
:1003F00002FB105543EA05440CFB00FCA44507D959
:10040000E41900F1FF3302D2A44500F2B880184687
:10041000A4EB0C0440EA08409DE731463046BDE8B5
:10042000F087CEF1200405FA0EF307FA0EF720FA52
:1004300004F83A0C25FA04F448EA0308B4FBF2F194
:100440004FEA184502FB11441FFA87FC45EA0445B0
:1004500001FB0CF3AB4200FA0EF409D9ED1901F1DE
:10046000FF3080F08A80AB4240F2878002393D4401
:10047000EB1A1FFA88F5B3FBF2F002FB103345EAE2
:10048000034500FB0CF3AB4207D9ED1900F1FF382F
:100490006FD2AB426DD902383D44EB1A40EA0141BC
:1004A0008FE7C1F1200722FA07F88B4005FA01F423
:1004B00048EA030320FA07FE4FEA134CFD404EEAD8
:1004C000040EB5FBFCF94FEA1E440CFB19551FFA4C
:1004D00083F844EA054509FB08F4AC4202FA01F24C
:1004E00000FA01FA08D9ED1809F1FF3043D2AC4205
:1004F00041D9A9F102091D442D1B1FFA8EFEB5FB3F
:10050000FCF00CFB10554EEA054400FB08F8A04532
:1005100007D9E41800F1FF3529D2A04527D90238C0
:100520001C4440EA0940A4EB0804A0FB02894C45A6
:10053000C6464D4615D312D056B1BAEB0E0364EB46
:10054000050404FA07F7CB401F43CC4037607460C2
:100550000021BDE8F0871846F8E69046E0E6C2457F
:10056000EAD2B8EB020E69EB03050138E4E728464E
:10057000D7E7404691E78146BEE7014678E7023873
:100580003C4445E7084608E7A8F102083D442BE74C
:1005900003685A004CBF43F0004323F00043184463
:1005A000704700BF61B32DE9F84F01F1FF3A904663
:1005B0000646D146002707EB090404EBD474641007
:1005C000E50071190846FFF7E3FFA245834605F1F0
:1005D0000800304409D0FFF7DBFFC34500F1FF30CE
:1005E00005D8404509D2671CE5E7C34505D9A742B0
:1005F00002D004F1FF39DEE700210846BDE8F88F9C
:1006000008467047012807D0022807D0044B00286D
:100610000CBF1846002070470248704702487047D8
:10062000090D00080D0D0008110D000830B5244B10
:1006300083B004468D1E7BB301A92846AFF300802A
:1006400020B301992A46FFF7ADFF0146F0B1FFF74D
:100650009FFF4B68A064012B12D0002B01F1040016
:1006600020DBFFF795FF0023E06423650368002B80
:100670001CDBFFF78DFF00232061184603B030BD5F
:10068000002323610523184603B030BD00232361F6
:100690000923184603B030BD0A490B48091AC9108E
:1006A0000191CFE70123E0642365DFE7C3F3036033
:1006B000FFF7A8FF0028206114BF00230923DCE70F
:1006C0000000000000940008288F00080368DA0783
:1006D00010B5044606D49B0700F1480009D500F088
:1006E00051FC2368590709D51A070ED5DB0613D527
:1006F00010BD00F03FFC23685907F5D404F1D00089
:1007000000F048FC23681A07F0D404F5A87000F044
:1007100049FC2368DB06EBD404F5E870BDE8104023
:1007200000F084BC036803B103441846704700BF5F
:1007300009207047704700BF70B504460D4608E0B9
:100740002B6C63612A4623692146012098470828BB
:1007500008D1296C2046FFF769FF06460028EFD034
:1007600007F010FB0728FBD13046296CFFF7E2FFAA
:10077000281D00F0F3FB00BF2DE9F0470C1D0546D6
:1007800092460FCCADF5727D03AE0FC60FCC0FC6EF
:100790000FCC0FC694E80F0002ACD5F80C80D5F84A
:1007A000189086E80F0000232846216C2360FFF78D
:1007B0003DFFBAF1000F074614BF0A2609267FB194
:1007C000A36B46F010018DE810022A4663640120F5
:1007D0002B46C04778BB38460DF5727DBDE8F087E3
:1007E000236C6B614FF4F07221467AA807F014FB7A
:1007F0002B697AAA294630469847889B82468DE81D
:100800001002314663642A462B460120C04790B946
:100810004FF4F0727AA9204607F0FEFABAF1080FF9
:1008200006D1216C2846FFF701FF09260746C6E7D7
:10083000BAF1070F05D0092738460DF5727DBDE8DE
:10084000F0873846216CFFF775FF03A800F086FBA0
:10085000406C7047F0B5CB6B0B640E1D0F46044621
:100860000FCEF9B001AD0FC50FCE0FC50FCE0FC51E
:1008700096E80F004FF0FF3685E80F00009606E07F
:1008800023696A46214698470828054608D11099E9
:100890002046FFF7CBFE0028F2D0092079B0F0BD4A
:1008A0006846FFF713FF062DF7D139462046FFF7BC
:1008B00043FF00BF30B4DD6BC160826119461D6427
:1008C000002230BC58E700BF70B5C66843690B64AE
:1008D00026B10122FFF750FF07F054FA03690A46D8
:1008E00004460D46014602209847072807D00828ED
:1008F00003D129462046FFF71FFF07F043FA304691
:10090000296CFFF717FF281D00F028FBC2681AB1F9
:10091000CA6B0A6400222FE79CE700BF704700BF44
:10092000836813B1014601201847704700B50429B8
:1009300007D8DFE801F00309060909000BB90F2AFF
:1009400005D902205DF804FB01205DF804FB00EBF3
:10095000820218465368019A13605DF804FB00BFD9
:1009600010B584B0002303AC0A4600941946FFF783
:10097000DDFF039804B010BD00B5042907D8DFE8F7
:1009800001F00309060909000BB90F2A05D9022055
:100990005DF804FB01205DF804FB019900EB820285
:1009A0000968516018465DF804FB00BF10B584B0BB
:1009B00004AC002344F8042D0A4600941946FFF7BE
:1009C000DBFF04B010BD00BFF0B5D36B1364151D81
:1009D00007460E460FCDADF50F7D17AC0FC40FCDFA
:1009E0000FC40FCD0FC495E80F004FF0FF3584E81A
:1009F0000F00169510E016A8FFF7D8FF314616A88D
:100A0000B84716AA694678B9049B08209847052874
:100A100004460AD0092807D026996846FFF706FE43
:100A20006A460C210028E6D0092416A8FFF74EFEDE
:100A300020460DF50F7DF0BD2DE9F04F0D46C96C38
:100A40008BB00C1D096807919146089400F0030BC8
:100A50001E46002B60D10902032307918DF8256003
:100A60008DF824302B6DBBF1020F08BFAC6B13F077
:100A7000010340D1019300F008030393D4F80080F0
:100A8000B8F1000F39D0022E43D0B4F80080678847
:100A90000434AB6C27F0010A0F2148469A44FFF753
:100AA0005FFF824533D828F001039A4450452CBF9C
:100AB000002001207F0007F0020708F0010847EA44
:100AC0000807012F3ED035D3022F1CD1236823F015
:100AD00000420292BBF1000F76D128B103990029A0
:100AE0007ED0002A00F0A680002B77DB029B01332A
:100AF00004EB8304C2E700230193022E3EDDFFF7DF
:100B000017FE002840D009200BB0BDE8F08F002070
:100B1000D0E767680834BCE7022BA3DC0B0CDAB221
:100B200009048DF82530022304EB820407918DF827
:100B3000243097E7BBF1000F02D0002840F0BD80C1
:100B400004349BE7BBF1000F25D1A8B194E80C0059
:100B5000991C4FEAD272D6D005F1580101330691A3
:100B600000F0A380201DFFF7DDFD06AB01462846FF
:100B700006F026FB002877D108347FE707A948460E
:100B800000F0EEFA0028BED1019B002B5CD10820BA
:100B90000BB0BDE8F08F0D2148462F6AFFF7E0FE4D
:100BA0008742E9D1AB6A9C42E6D12046FFF7F0FCD0
:100BB0000F2102464846FFF7F9FE48462A46002123
:100BC000FFF7F4FE07209FE70D2148462F6AFFF745
:100BD000C7FE874258D02368002B87DA043485E7A4
:100BE000029B3BB305F15803271DCDF810B0DDF88B
:100BF0000C80DDF808A00596A3461C4602E0B2452D
:100C0000B04616D038460694FFF78CFD06AB014679
:100C10000022284606F0D4FA08F10106043700281D
:100C2000EDD0029B059E43455C46DDF810B0D2D165
:100C300000E05C4648460D21FFF792FE069B2862C5
:100C4000AC626B6206205FE70F214846FFF788FE23
:100C50000E2102464846FFF7A9FE4846294A0F21C1
:100C6000FFF7A4FE07204FE707460D214846FFF790
:100C700077FE022F28621DD12B46069A43F82C2FAF
:100C80006B62AC6206203FE7AB6A9C42A3D10422B0
:100C90000027A3180299A962EF622A636B63236895
:100CA000BB421DDB0123019320E748460D21FFF7DE
:100CB00057FE2862069B6B62E3E72046FFF768FC5D
:100CC00004340646AC63284606F0D8FA00283FF400
:100CD0001AAF484632460F21FFF768FE072013E798
:100CE0000846013004EB8000FFF752FC0F2102465A
:100CF0004846FFF75BFE48462A463946FFF756FE50
:100D0000072001E78B790008002395E6012393E68D
:100D1000022391E6F0B50446C5B004290DD8DFE8FA
:100D200001F053030C310F00012B4FEA124695B22C
:100D300062D17219102A40F29B80022045B0F0BDAA
:100D4000002BFAD1102AF8D82368D80600F1C68003
:100D500022AE3046019200F073F9A06B019A002395
:100D6000012505FA03F1114203D0016846F823106A
:100D700004300133042BF4D1A063304600F056F95F
:100D80000020DBE7032BD8D1150C97B2EB19102B01
:100D9000D3D823681E0700F1B58022AE304600F09C
:100DA00023F9ED00A36B4FB1043D711903EBC700AC
:100DB00053F8042B41F8042F8342F9D13046A36342
:100DC00000F0F0F80020B9E7002BB6D1A56B97B280
:100DD000201D012606FA03F1394203F1010302D076
:100DE000296801600435102B00F10400F2D112F4DF
:100DF00000503BD1A563A1E7052B9ED17719202F89
:100E00009BD80F2E66D92F46002D3AD12A460027AF
:100E1000002AA06B72DD00EBC202014644A800EB81
:100E2000C6008C3851F8045B40F8045F9142F9D158
:100E3000084697B1102E324644A938BF102201EB64
:100E4000C202A2F5C4727900043A00EB810150F8A5
:100E5000045B42F8045F8842F9D1012B48D00F2E81
:100E6000A16333D917B102A800F094F8002065E718
:100E70000F2E3FF662AF00272268D10717D4002F4C
:100E800060D02268510745D4012B4DD00F2E06D8D3
:100E900022A8019300F07AF8019B002FB6D002A897
:100EA000019300F07BF8019BC6F11002B0E722F03D
:100EB0000101052B2160019320463BD022F0030263
:100EC00040F8482B00F05AF8019BD8E722A800F020
:100ED00059F8C7E7102FCED9103FCDE723F0100304
:100EE000236004F5E870019200F0AAF8019A2FE758
:100EF0000431A16322A800F03DF8B7E7002F99D193
:100F00000146AAE723F00803236004F5A87000F067
:100F10006BF842E7204622F0040240F8D02B019300
:100F200000F03CF8019BAFE722A8019300F026F8FF
:100F3000019BB9E741F0020140F8481B00F026F898
:100F4000019B9CE7012B03D00F2E3FF65FAF9FE77D
:100F500022A8019300F012F8019B57E700F1340139
:100F600091E838009C46A6464CF8045D90E8FF0FD7
:100F7000E54600BD90EC210B704700BF80EC210BD3
:100F8000704700BF90EC200B704700BF80EC200B37
:100F9000704700BFD0EC200B704700BFC0EC200BA7
:100FA000704700BFF0EC0201F0EC0211F0EC0221FE
:100FB000F0EC0231F0EC0241F0EC0251F0EC026195
:100FC000F0EC0271F0EC0281F0EC0291F0EC02A185
:100FD000F0EC02B1F0EC02C1F0EC02D1F0EC02E175
:100FE000F0EC02F1704700BFE0EC0201E0EC02110E
:100FF000E0EC0221E0EC0231E0EC0241E0EC0251D5
:10100000E0EC0261E0EC0271E0EC0281E0EC0291C4
:10101000E0EC02A1E0EC02B1E0EC02C1E0EC02D1B4
:10102000E0EC02E1E0EC02F1704700BFB0FC0181AE
:10103000B0FC0191B0FC01A1B0FC01B1704700BF50
:10104000A0FC0181A0FC0191A0FC01A1A0FC01B1C8
:10105000704700BFEC4600B52DE900502DE9FF1F99
:101060004FF000032DE90C0001A9FFF7F3FBDDF8B9
:1010700040E012B0704700BFEC4600B52DE90050CB
:101080002DE9FF1F4FF000032DE90C0001A9FFF728
:101090001BFCDDF840E012B0704700BFEC4600B525
:1010A0002DE900502DE9FF1F4FF000032DE90C0042
:1010B00001A9FFF72BFCDDF840E012B0704700BF3C
:1010C000EC4600B52DE900502DE9FF1F4FF000035D
:1010D0002DE90C0001ABFFF7EDFBDDF840E012B0AD
:1010E000704700BFEC4600B52DE900502DE9FF1F09
:1010F0004FF000032DE90C0001AAFFF765FCDDF8B5
:1011000040E012B0704700BF027A1AB9437A43B97F
:10111000B02070470368013A02721A020260180E8A
:1011200070474268013B10B4437213680321141DD9
:1011300001721A02446002605DF8044B180E704799
:1011400000B585B003AA0023009219460C22FFF7D0
:10115000EDFB039805B05DF804FB00BFF0E700BFAE
:101160002DE9F043064685B00F464FF0000838469B
:10117000FFF7CAFFB028044623D0050627D4002372
:101180000DF10C09194685000D22CDF8009030466E
:10119000FFF7CCFBEDB2039BCDF80090600605F1A4
:1011A00004054CBF5D1BED18002319460D22304687
:1011B0000395FFF7E1FB3846FFF7A6FFB02804468A
:1011C000DBD1B8F1000F00F0958000201CE000F0AA
:1011D000F003802B5DD0902B19D0A02B2CD0B02BFE
:1011E0003FD0C02B6CD000F0F803D02B0BD100F017
:1011F0000702013242F40022052301213046FFF7A5
:1012000089FD0028B3D0092005B0BDE8F08300F0C7
:101210000D030D2BF7D003AD002300F00F0219468C
:1012200000953046FFF782FB0023009519460D22FA
:101230003046FFF7A1FB9AE7C24302F007034FF4E1
:101240007F621A41010702F47F624FF0000348BF3A
:1012500042F4804219463046FFF75CFD0028D2D1A7
:1012600085E7B12857D0B22868D0B32800F0958020
:1012700000F0FC03B42BC6D000F0070201320123BA
:1012800042F4002219463046FFF744FD0028BAD147
:101290006DE73846FFF738FF24020443B4F5004FEA
:1012A000B1D024010023A2B219463046FFF732FD27
:1012B0000028A8D114F4004F18BF4FF0010856E7DA
:1012C000C6287DD0C72800F0868000F0F803C02B28
:1012D00000F09480C82800F09F80C92893D1384638
:1012E000FFF712FF020300F00F0002F4702201303A
:1012F000024381E703AC43460E2241460094304648
:10130000FFF714FB0094304643460F224146FFF797
:1013100033FB404678E73846FFF7F6FE00283FF4F7
:1013200072AF10F0F0037FF46EAF024619463046FC
:10133000FFF7F0FC00287FF466AF18E700230DF1FB
:101340000C090D221946CDF800903046FFF7EEFA51
:101350003846FFF7D9FE02064FF002040CD5039B76
:1013600000F07F00A040034438460393FFF7CCFE13
:10137000030604F10704F2D4039BCDF8009000F0BB
:101380007F02A24003F501740023144419460D2284
:1013900030460394FFF7F0FAE9E63846FFF7B4FE6B
:1013A000010300F00F0001F47021421C01230A43E5
:1013B00030461946FFF7AEFC00287FF424AFD6E68E
:1013C0003846FFF7A1FE010300F00F0001F4702181
:1013D000421C0323EBE73846FFF796FE00283FF454
:1013E00012AF10F0F0037FF40EAF02460421304636
:1013F000FFF790FC00287FF406AFB8E600F00F027C
:101400000132032342F4202219463046FFF782FCC2
:1014100000287FF4F8AEAAE63846FFF775FE00F024
:10142000F00200F00F031032013343EA0232E3E628
:1014300010B5C36C84B05A6803208DF80C00DC79B9
:101440008DF80D4012020833084601A9019202935B
:10145000FFF786FE04B010BD08B5FFF77FFE806C75
:1014600008BD00BF08B5FFF779FEC06CC37900EB7B
:101470008300083008BD00BF08B506F083FC00BF3C
:1014800008B5FFF7F9FF00BF704700BF38B50E4A37
:101490000E4B054618784FF47A73B3FBF0F31068DF
:1014A000B0FBF3F000F094F8044658B90F2D09D8BA
:1014B000024629464FF0FF3000F04AF8044B204620
:1014C0001D6038BD012038BD0C0000200400002044
:1014D0000800002008B50B4B1A6842F400721A602D
:1014E0001A6842F480621A601A6842F480721A60C4
:1014F000032000F01BF80020FFF7C8FF02F09CF863
:10150000002008BD003C0240034A044B11681B78D0
:101510000B441360704700BF608600200400002069
:10152000014B1868704700BF60860020074AD368E7
:1015300023F4E0631B041B0C43F0BF63000243F47D
:10154000003300F4E0600343D360704700ED00E037
:10155000174B30B5DC68C4F30224C4F10703251D22
:10156000042B28BF0423062D4FF0010505FA03F3D1
:1015700003F1FF338CBF033C00241940A14005FA5E
:1015800004F4013C2240002842EA01024FEA021220
:10159000AFBF00F1604000F00F00064BD2B2A5BF14
:1015A00000F56140D2B21A5480F8002330BD00BF6C
:1015B00000ED00E014ED00E04209012300F01F00FF
:1015C00003FA00F0014B43F82200704700E100E00D
:1015D0000138B0F1807F0AD2064B074A5860F021EB
:1015E00082F823100020072298601A6070470120BB
:1015F000704700BF10E000E000ED00E02DE9F04F83
:1016000085B00B68DFF8AC81684ADFF8AC910193D4
:1016100000234FF0010E019C0EFA03FE0EEA0406B1
:10162000B64540F0AE804C6824F01007022F16D16A
:101630004FEAD30A00EB8A0A03F0070BDAF82050CE
:101640004FEA8B0B4FF00F0C0CFA0BFC25EA0C0C3D
:101650000D6905FA0BF545EA0C05CAF820504FEA6A
:10166000430A0325D0F800B005FA0AF5ED4304F06B
:10167000030C0BEA050B0CFA0AFC013F4CEA0B0CBD
:10168000012FC0F800C011D8876807EA050BCF68A2
:1016900007FA0AFC4CEA0B078760476827EA0E0E38
:1016A000C4F300179F4047EA0E074760C7683D40F4
:1016B0008F6807FA0AF73D43C560E50061D54FF032
:1016C000000BCDF80CB0D8F84470394D47F4804782
:1016D000C8F84470D8F8447007F480470397039F14
:1016E00023F0030707F1804707F59C3703F0030C4D
:1016F000D7F808A04FEA8C0C4FF00F0E0EFA0CFE34
:10170000A8422AEA0E0E43D005F58065A84241D0D2
:1017100005F58065A8423FD005F58065A8423DD01B
:1017200005F58065A8423BD048453BD005F50065EE
:10173000A84239D005F58065A84214BF08250725C1
:1017400005FA0CF545EA0E05BD601568F74314F47B
:10175000803F0CBF3D4035431560556814F4003F91
:101760000CBF3D4035435560956814F4801F0CBF95
:101770003D4035439560D568A40254BF3D40354394
:10178000D5600133102B7FF444AF05B0BDE8F08F76
:101790005D46D5E70125D3E70225D1E70325CFE74D
:1017A0000425CDE70525CBE70625C9E7003C014028
:1017B0000000024000380240001402400AB181617A
:1017C00070470904FBE700002DE9F341044618B90E
:1017D000012002B0BDE8F0810368DD0710D4236862
:1017E000980758D423681A0700F19A8023685B078A
:1017F00000F1B880A269002A40F019810020E8E7D2
:10180000A64B9A6802F00C02042A07D09A6802F0EC
:101810000C02082A0AD15B68590207D59F4B1B6846
:101820009A03DCD56368002BD9D1D1E763689B4D5F
:10183000B3F5803F11D12B6843F480332B60FFF761
:101840006FFE964D06462B689B03C8D4FFF768FED3
:10185000801B6428F7D90320BBE7B3F5A02F04D180
:101860002B6843F480232B60E5E72A6822F480325A
:101870002A602A6822F480222A60002BDFD1FFF739
:101880004FFE06462B689F03A9D5FFF749FE801B34
:101890006428F7D9DFE7814B9A6812F00C0F07D064
:1018A0009A6802F00C02082A11D15B685E020ED41D
:1018B0007A4B1A68950702D5E268012A88D11A681E
:1018C000216922F0F80242EAC1021A608AE7E2685E
:1018D000734BB2B101221A60FFF722FE6F4D06462C
:1018E0002B68980707D52B68226923F0F80343EA91
:1018F000C2032B6076E7FFF713FE801B0228EFD9A7
:10190000A9E71A60FFF70CFE644D06462B6899079D
:101910007FF568AFFFF704FE801B0228F6D99AE72F
:101920006269604B7AB101221A60FFF7F9FD5B4DE5
:1019300006466B6F9F073FF559AFFFF7F1FD801B20
:101940000228F6D987E71A60FFF7EAFD534D0646ED
:101950006B6F98077FF54AAFFFF7E2FD801B022807
:10196000F6D978E74D4B1A6C12F0805228D10192CB
:101970001A6C42F080521A641B6C03F0805301937E
:10198000019B0126484D2B68D9051BD5A368434D03
:10199000012B27D12B6F43F001032B67FFF7C0FD0D
:1019A0003E4D074641F288382B6F9B0739D5002EF4
:1019B0003FF420AF394A136C23F08053136419E7C6
:1019C0000026DFE72B6843F480732B60FFF7A8FD48
:1019D00007462B68DA05D9D4FFF7A2FDC01B022801
:1019E000F7D938E7052B04D12B6F43F004032B679D
:1019F000D0E72A6F22F001022A672A6F22F0040240
:101A00002A67002BCAD1FFF78BFD41F288380746C1
:101A10002B6F9807CBD5FFF783FDC01B4045F7D947
:101A200019E7FFF77DFDC01B4045BDD913E71B4DEE
:101A3000AB6803F00C03082B3FF4CAAE1B4E002327
:101A4000022A336034D1FFF76BFD07462B689901FA
:101A50001ED4226AE3691343626A43EA8213E26A8C
:101A600043EA0263A26A0D4C5208013A43EA024378
:101A70006B6001233360FFF753FD054623689A012D
:101A80003FF5BCAEFFF74CFD401B0228F6D9E2E65D
:101A9000FFF746FDC01B0228D8D9DCE6003802401B
:101AA00000004742800E47420070004060004742FD
:101AB000FFF736FD04462B689B017FF59FAEFFF7CD
:101AC0002FFD001B0228F6D9C5E600BF134908B553
:101AD0008B6803F00C03042B03D0082B03D01048B1
:101AE00008BD104808BD4A684B68496813F4800374
:101AF00014BF0C480A48C1F3881118BF002302F034
:101B00003F02A1FB0001FEF7BDFB044B5B68C3F382
:101B1000014301335B00B0FBF3F008BD0038024025
:101B20000024F40040787D012DE9F0410D46044683
:101B300010B90120BDE8F081444B1A6802F00F0291
:101B40008A4228D321688F072DD4C80740D43F4B41
:101B50001A6802F00F02954266D3226851076CD4CE
:101B6000130707D53A4A2169936823F4604343EA8F
:101B7000C1039360FFF7AAFF354B364A9B68C3F356
:101B80000313D35CD840344B18600020FFF77EFC71
:101B90000020BDE8F081CAB21A701B6803F00F0381
:101BA0009942C6D1CEE72A4B11F0040F1EBF9A68A6
:101BB00042F4E0529A600E0742BF9A6842F46042D3
:101BC0009A609A68A06822F0F00202439A60BCE72B
:101BD00062681F4B012A1DD11B6813F4003FA8D077
:101BE0001B4EB36823F003031343B360FFF798FC65
:101BF00041F288380746B368626803F00C03B3EB20
:101C0000820FA4D0FFF78CFCC01B4045F3D9032002
:101C1000BDE8F081911E01291B6802D813F0007FF6
:101C2000DDE713F0020FDAE7EAB21A701B6803F07F
:101C30000F039D427FF47DAF8FE70549E0688B6815
:101C400023F4E05303438B608AE700BF003C02406B
:101C500000380240A38700080C000020044B054A0E
:101C60009B68C3F38223D35C034A1068D840704753
:101C700000380240B38700080C000020044B054ADE
:101C80009B68C3F34233D35C034A1068D840704763
:101C900000380240B38700080C0000202DE9F04115
:101CA000069E0446884617461D462268936838EA11
:101CB00003030CBF012300239F4202D10020BDE893
:101CC000F0816B1CF2D055BB23685A6822F0E00209
:101CD0005A606268B2F5827F0AD1A268B2F5004FFD
:101CE00002D0B2F5806F03D11A6822F040021A6068
:101CF000A26AB2F5005F09D11A6822F400521204F8
:101D0000120C1A601A6842F400521A60012384F817
:101D10005130002384F850300320BDE8F081FFF7F4
:101D2000FFFB801B8542C0D8CEE713B50B4600925F
:101D3000802100220446FFF7B1FF20B1636D43F01C
:101D400020036365032002B010BD10B504460028CF
:101D500036D00023836290F8513003F0FF021BB9A4
:101D600080F8502001F084FC2168A068A269022359
:101D700084F851300B6823F040030B606368034321
:101D8000E06803432069034360690343E069034358
:101D9000206A0343A06A034302F4007003430B600C
:101DA000120C636A02F004021A434A60CB6923F4FE
:101DB0000063CB6100200123606584F8513010BDC1
:101DC000012010BD2DE9F043994690F8503085B0C0
:101DD000012B04460D4616460C9F00F0ED800123B2
:101DE00080F85030FFF79CFB94F851306168DBB20B
:101DF000012B80460AD0B1F5827F40F0DB80A268DB
:101E0000002A40F0D780042B40F0D480002D4ED023
:101E1000002E4CD0B9F1000F49D094F85130A66390
:101E2000012B04BF052384F851300023636523642C
:101E300063642368A4F83E90A4F836901A68A4F866
:101E40003C90500658BF1A68256358BF42F04002C4
:101E5000A4F8349058BF1A60E268B2F5006F5DD103
:101E600019B1E28E92B2012A06D135F8022BDA605E
:101E7000E38E013B9BB2E3864FF00109E38E9BB2F8
:101E8000BBB9E38F9BB2A3B9CDF800803B460122DA
:101E900002212046FFF702FF002835D1424639468D
:101EA0002046FFF742FF002879D0202363650120F8
:101EB0002BE0B9F1000F0FD0E38E9BB263B1236822
:101EC0009A68910708D535F8022BDA60E38E013B5A
:101ED0009BB2E3864FF00009E38F9BB263B12368A6
:101EE0009A68D20708D5DB6826F8023BE38F013BEE
:101EF0009BB2E3874FF00109781CBFD0FFF710FBBE
:101F0000A0EB08008742B9D80320012384F85130A0
:101F1000002384F8503005B0BDE8F08319B1E28E9B
:101F200092B2012A06D115F8012B1A73E38E013BF8
:101F30009BB2E3864FF00109E38E9BB21BB9E38F9E
:101F40009BB2002BA0D0B9F1000F0FD0E38E9BB253
:101F500063B123689A68910708D52A781A73E38ECB
:101F6000013B9BB2E38601354FF00009E38F9BB242
:101F700063B123689A68D20708D5DB683370E38FB2
:101F8000013B9BB2E38701364FF001097B1CD3D0A4
:101F9000FFF7C6FAA0EB08008742CDD8B4E7A368E4
:101FA000002BB2D123680390DA6803929B680393F5
:101FB000039BAAE70220A8E70220ACE7036A23F00C
:101FC00001030362036A426870B584690D6824F0F6
:101FD000730425438C6823F0020323430C4CA04276
:101FE00009D004F58064A04205D042604A6885614A
:101FF0004263036270BDCC688E6923F008032343FB
:102000004C6922F44072344323F004032243ECE78A
:1020100000000140036A23F480730362036A42688C
:1020200070B5C4690D6824F0730425438C6823F4EB
:10203000007343EA04230E4CA04209D004F58064E7
:10204000A04205D042604A68C561C263036270BDA8
:10205000CC688E6923F4006343EA04234C6922F4BC
:102060004052344323F4806342EA0412EAE700BF9B
:1020700000000140036A23F48053036230B5046A10
:102080004368C2690D6822F4E64242EA05228D687F
:1020900024F4005444EA0534094DA84209D005F55A
:1020A0008065A84205D043604B68C2610364046246
:1020B00030BD4D6923F4804343EA8513F3E700BF45
:1020C00000000140036848689A6822F0700230B549
:1020D00002430C6822F00702224350289A6021D064
:1020E00002D8402810D030BD60282DD070283DD1B6
:1020F000CA688C6898680969224320F47F4042EAE4
:10210000012202439A6030BD186A1A6A096922F0F6
:1021100001021A629A6922F0F00242EA01129A61FF
:10212000186230BD88680D69196A1C6A24F00104C0
:102130001C629A6921F00A0122F0F00242EA0512BB
:1021400001439A61196230BD186A8C680D6920F0EC
:102150001000186299691A6A21F4704122F0A002F5
:1021600041EA053142EA041299611A6230BD0368FE
:10217000DA6842F00102DA601A6842F001021A607D
:10218000002070477047704790F83830012B70B5C9
:102190004FF002031CD080F839300368012280F828
:1021A00038209A6822F47F4222F077029A600A6807
:1021B000402A79D019D8102A00F093800AD8002A32
:1021C00000F08980012380F83930002380F838300E
:1021D000184670BD202A00F08A80302AF2D19A6811
:1021E00022F0700242F0370236E0702A36D01BD857
:1021F000502A42D0602AE5D11C6A4D68CE6824F08E
:1022000010041C6299691A6A21F4704122F0A0023C
:1022100042EA051241EA063199611A629A6822F08F
:10222000700242F0670217E0B2F5805F11D0B2F59C
:10223000005FC7D18A684D689C68C9682A4324F446
:102240007F4442EA012222439A609A6842F4804223
:1022500002E09A6822F007029A60B3E78A684D6844
:102260009C68C9682A4324F47F4442EA012222433D
:102270009A609A6842F07702EEE74C68CE68196A75
:102280001D6A25F001051D629A6921F00A0122F0FC
:10229000F00242EA061221439A6119629A6822F01A
:1022A000700242F05702D7E74C68CE68196A1D6A7F
:1022B00025F001051D629A6921F00A0122F0F00261
:1022C00042EA061221439A6119629A6822F070026A
:1022D00042F04702C0E79A6822F0700242F007021B
:1022E000BAE79A6822F0700242F01702B4E79A68DF
:1022F00022F0700242F02702AEE738B590F838308D
:10230000012B04464FF0020315D0012580F8385008
:1023100080F83930FFF7D6FE2368DA6822F04002F1
:10232000DA60DA68002022F48042DA6084F83950FA
:1023300084F8380038BD184638BD704770470368C8
:102340001A69910710B504460ED5DA6892070BD5C5
:102350006FF002021A619B6901229B07027677D017
:1023600000F0FEFC0023237623681A69500710D57D
:10237000DA6851070DD56FF004021A619B690222D9
:1023800013F4407F2276204668D000F0E9FC002359
:10239000237623681A6912070FD5DA6810070CD55F
:1023A0006FF008021A61DB69042299072276204641
:1023B0005AD000F0D5FC0023237623681A69D20690
:1023C00010D5DA68D0060DD56FF010021A61DB69FE
:1023D000082213F4407F227620464BD000F0C0FC48
:1023E0000023237623681A69D10708D5DA68D20753
:1023F00005D56FF001021A61204600F05DFD2368EB
:102400001A69100608D5DA68110605D56FF0800242
:102410001A61204600F0D5FA23681A69520608D5D9
:10242000DA68500605D56FF040021A612046FFF7C2
:1024300085FF23681A69910622D5DA6892061FD5AE
:102440006FF0200220461A61BDE8104000F0B8BAD3
:10245000FFF773FF204600F0E9FC83E7FFF76DFF0D
:10246000204600F0E3FC92E7FFF767FF204600F00C
:10247000DDFCA0E7FFF761FF204600F0D7FCAFE7E7
:1024800010BD00002E4A0368904212D0B0F1804F78
:102490000FD0A2F57C4290420BD002F580629042B0
:1024A00007D002F58062904203D002F57842904254
:1024B0001DD14A6823F070031343214A904204D18E
:1024C000CA6823F44073134328E0B0F1804FF7D07B
:1024D0001C4A9042F4D002F580629042F0D002F59E
:1024E00080629042ECD002F578429042E8D0164AE1
:1024F0009042E5D002F580629042E1D002F5806220
:102500009042DDD0A2F598329042D9D002F5806297
:102510009042D5D002F580629042D1D003608B68A2
:10252000C3620B688362064B984206D003F5806352
:10253000984202D00123436170470B690363F9E7B6
:1025400000000140000400400040014010B5044676
:10255000A0B190F8393003F0FF021BB980F83820A1
:1025600001F0BCF8022384F839302068211DFFF700
:1025700089FF012384F83930002010BD012010BDEF
:1025800010B50446A0B190F8393003F0FF021BB932
:1025900080F83820FFF7F6FD022384F839302068F0
:1025A000211DFFF76FFF012384F83930002010BD93
:1025B000012010BD10B50446A0B190F8393003F0E9
:1025C000FF021BB980F83820FFF7DDFD022384F8F5
:1025D00039302068211DFFF755FF012384F8393079
:1025E000002010BD012010BD70B5046A1A4E24F001
:1025F000010404628469056AB04224F003041AD01D
:10260000B0F1804F17D0A6F57C46B04213D006F546
:102610008066B0420FD006F58066B0420BD006F55A
:102620007846B04207D006F57056B04203D0A6F502
:102630009436B0420DD122431B0122F0F002DBB2EE
:1026400025F00A0501F00A011A432943826101625B
:1026500070BD44F00102EFE700000140F8B590F8CA
:102660003830012B04460D464FF0020019D00123EB
:1026700084F8383084F83900A2B9CB68206806C9DC
:10268000FFF7B2FF2368A9689A6922F00C029A61E9
:102690009A690A439A610123002084F8393084F84A
:1026A0003800F8BD042A8E682368E86882C91FD103
:1026B0001A6A22F010021A629A691D6A22F44072A4
:1026C00042EA0722000380B222F470420901024369
:1026D00001F0A00125F0A00001439A6119629A69F6
:1026E00022F440629A619A6942EA06269E61D2E724
:1026F000082A1A6A1CD122F480721A62DA691D6AE9
:1027000022F003023A430001C0B222F0F0020902B3
:10271000024301F4206125F420600143DA6119626B
:10272000DA6922F00C02DA61DA691643DE61B2E797
:1027300022F480521A62DA691D6A22F4407242EA77
:102740000722000322F4704280B20903104301F40F
:10275000204125F420421143D8611962DA6922F43C
:102760004062DA61DA6942EA0626DFE7036A23F0AB
:1027700010030362036A426870B584690D6824F42B
:10278000E64444EA05258C6823F0200343EA041359
:102790000D4CA04209D004F58064A04205D04260EF
:1027A0004A6885618263036270BDCC688E6923F0DC
:1027B000800343EA04134C6922F44062344323F05B
:1027C000400342EA8402EAE70000014038B590F88D
:1027D0003830012B04464FF0020018D0012384F852
:1027E000383084F839001D460C2A0BD8DFE802F097
:1027F000070A0A0A100A0A0A140A0A0A18002068B4
:10280000FFF7DCFB002084F8395084F8380038BD2D
:102810002068FFF7ABFFF5E72068FFF7FBFBF1E768
:102820002068FFF727FCEDE7036A10B501248C4010
:1028300023EA04030362036A8A401A43026210BD5A
:1028400010B504460C290DD8DFE801F0070C0C0C7C
:10285000220C0C0C270C0C0C2C000268D36843F0E3
:102860000203D36001222068FFF7DEFF2368104ACD
:10287000934203D002F58062934203D15A6C42F432
:1028800000425A641A6842F001021A60002010BD2A
:102890000268D36843F00403E3E70268D36843F0B7
:1028A0000803DEE70268D36843F01003D9E700BFEE
:1028B00000000140FFF7C4BF10B504460C290DD835
:1028C000DFE801F0070C0C0C170C0C0C1C0C0C0CAA
:1028D00021000268D36843F00203D360206801221C
:1028E000FFF7A2FF2268136843F001031360002082
:1028F00010BD0268D36843F00403EEE70268D368B2
:1029000043F00803E9E70268D36843F01003E4E703
:1029100010B504460C290DD8DFE801F0070C0C0CAB
:10292000210C0C0C260C0C0C2B000268D36823F035
:102930000203D36000222068FFF776FF2368196A3C
:1029400041F21112114208D1196A40F24442114277
:1029500002BF1A6822F001021A60002010BD02684E
:10296000D36823F00403E4E70268D36823F0080384
:10297000DFE70268D36823F01003DAE790F8383015
:10298000012B10B54FF0020318D080F839300368DE
:102990000C685A68496822F070025A605A682243EB
:1029A0005A609A6822F080029A609A680A439A6094
:1029B000012380F83930002380F83830184610BDE4
:1029C000704770472DE9F0470668C2683369C169EE
:1029D00023F4405313433361044683680069F2686B
:1029E0000343606922F41642034322F00C020B43B6
:1029F0001343F3607369A26923F440731343B1F581
:102A0000004F73617A4B7CD19E4203D003F5806303
:102A10009E4244D1FFF732F9192505FB00F36068A7
:102A20004FF064094000B3FBF0F3B3FBF9F34FEA56
:102A30000318FFF723F9636868435B00B0FBF3F703
:102A4000FFF71CF9636868435B00B0FBF3F3B3FB6B
:102A5000F9F309FB1373DB003233B3FBF9F35B00CB
:102A600003F4F877FFF70AF9626868435200B0FB95
:102A7000F2FAFFF703F9636868435B00B0FBF3F316
:102A8000B3FBF9F309FB13A3DB003233B3FBF9F318
:102A900003F0070343443B44B360BDE8F087FFF70E
:102AA000DDF8192505FB00F360684FF0640940006C
:102AB000B3FBF0F3B3FBF9F34FEA0318FFF7CEF8DB
:102AC000636868435B00B0FBF3F7FFF7C7F8636820
:102AD00068435B00B0FBF3F3B3FBF9F309FB13733B
:102AE000DB003233B3FBF9F35B0003F4F877FFF755
:102AF000B5F8626868435200B0FBF2FAFFF7AEF82F
:102B0000B9E79E4202D03B4B9E4240D1FFF7B6F858
:102B1000676819254FF0640905FB00F3BF00B3FB9C
:102B2000F7F3B3FBF9F31F01FFF7A8F863686843F5
:102B30009B00B0FBF3F8FFF7A1F8636868439B00C4
:102B4000B0FBF3F3B3FBF9F309FB13831B0132333F
:102B5000B3FBF9F303F0F008FFF790F862686843FD
:102B60009200B0FBF2FAFFF789F8636868439B00B4
:102B7000B0FBF3F3B3FBF9F309FB13A31B013233EF
:102B8000B3FBF9F303F00F0343EA080383E7FFF70E
:102B900065F8676819254FF0640905FB00F3BF006D
:102BA000B3FBF7F3B3FBF9F31F01FFF757F86368C3
:102BB00068439B00B0FBF3F8FFF750F86368684385
:102BC0009B00B0FBF3F3B3FBF9F309FB13831B0189
:102BD0003233B3FBF9F303F0F008FFF73FF8626814
:102BE00068439200B0FBF2FAFFF738F8BDE700BF88
:102BF0000010014000140140F8B504460E46174687
:102C00001D4621680B6836EA030301D10020F8BD98
:102C10006B1CF7D095B92368DA6822F4D072DA60B9
:102C20005A6922F001025A61202384F8393084F86D
:102C30003A30002384F838300320F8BDFEF770FCEA
:102C4000C01B8542DDD2E6E710B5044640B390F8DC
:102C5000393003F0FF021BB980F8382000F0A8FDDE
:102C60002268242384F83930D36823F40053D360D6
:102C70002046FFF7A7FE23681A6922F490421A61E2
:102C80005A6922F02A025A61DA6842F40052DA6084
:102C900000202023E06384F8393084F83A3010BDF6
:102CA000012010BD2DE9F0411F4690F83930202B4E
:102CB00004460D4690464FD100294AD0002A48D0FC
:102CC00090F83830012B47D0012380F838300023AA
:102CD000C363212380F83930FEF722FCA4F8248056
:102CE0000646A4F82680E38C9BB26BB93B4632467D
:102CF00040212046FFF780FFB0B9202384F8393007
:102D000084F83800BDE8F081E38C013B9BB2E3849A
:102D1000A368B3F5805F32463B464FF08001204602
:102D20000ED1FFF769FF10B10320BDE8F0812B88B9
:102D30002268C3F308035360236943B90235D2E71D
:102D4000FFF75AFF0028EFD123682A785A6001352F
:102D5000C9E70120BDE8F0810220BDE8F081000054
:102D600080B584B000AF78607B681B68B3F1804F9A
:102D700051D14FF080435A6B294B1B68D31AFB602B
:102D80004FF080435B6A274A93428CBF01230023A4
:102D9000DBB2002B07D04FF0804300225A62204B59
:102DA00000221A6004E04FF080435B6A1C4A136003
:102DB000F9681D4800F0C5FD0346002B14BF012330
:102DC0000023DBB2002B23D0174800F0B2FE1648D8
:102DD00000F0EFFE144B5B681B6800225A62124B36
:102DE0005B681B68104AD26932321209DA620E4BF4
:102DF0005B681B684FF47A729A630B4B1B681B6805
:102E00004FF08042516A084AD2690A449A6302E04C
:102E1000054800F0E5FE00BF1037BD4680BD00BF8D
:102E20008485002000286BEEE401002080B582B08C
:102E300000AF78607B681B68B3F1804F35D11D4BC4
:102E40001B7A002B15D11B4800F0B3FE194800F087
:102E500070FE184B5B681B6800225A62154B1B689A
:102E60001B684FF08042516A124AD2680A449A6342
:102E70001BE0104B1B7A012B17D10E4800F0BDFE52
:102E80000346002B11D00B4800F053FE094B5B6842
:102E90001B6800225A62074B1B681B684FF0804278
:102EA000516A044AD2690A449A6300BF0837BD4692
:102EB00080BD00BFE401002080B582B000AF786023
:102EC0007B681B68164A93420FD1164800F095FEA6
:102ED0000346002B09D01349134801F021FA124888
:102EE00001F03AFB0F4800F036FE7B681B680F4A82
:102EF000934211D10B4B9B6919460D4801F0DCFD43
:102F0000084B9B6919460B4801F0D6FD064800F0B6
:102F10004BFF074801F0A4FD00BF0837BD4680BD48
:102F2000000C0040E40100205C020020004401404D
:102F3000B48400201C85002090B59DB002AFFEF740
:102F4000C9FA00F06BF800F0CDFA00F017F900F0C4
:102F5000CDF900F099FA00F0D5F800F06FFA2748A3
:102F6000FFF705F904212548FFF7A4FC234A24496B
:102F7000244800F00CFE0021224800F070FE224997
:102F8000204800F046FE4FF4C0711E4800F093FE4A
:102F90001E48FFF7ECF801F0FFFB07F144031C4A61
:102FA0001C4613460FCB07C4237007F144010A23C4
:102FB00020221848FFF776FE124B9A697B6E9A42E0
:102FC00014BF01230023DBB2002BF5D000233B719B
:102FD0000C4B5A690B4B99690A4BDB69381D0093FE
:102FE0000B460D4905F046F8391D64234022094877
:102FF000FFF758FE034B9B697B66DDE72C01002041
:10300000F0000020E401002040420F006801002091
:103010004C870008A40100205C87000880B594B0AC
:1030200000AF07F1200330220021184604F019FFF9
:1030300007F10C0300221A605A609A60DA601A6184
:103040000023BB602D4A2D4B1B6C43F0805313644F
:103050002A4B1B6C03F08053BB60BB6800237B6072
:10306000274A274B1B6843F480431360244B1B689B
:1030700003F480437B607B6802233B620123FB6295
:1030800010233B630223BB630023FB6308233B64E1
:10309000A8237B640223BB640423FB6407F12003A1
:1030A0001846FEF791FB0346002B14BF01230023B3
:1030B000DBB2002B01D000F07BFA0F23FB60022370
:1030C0003B6100237B614FF4A053BB614FF4A053DD
:1030D000FB6107F10C0305211846FEF725FD0346A9
:1030E000002B14BF01230023DBB2002B01D000F022
:1030F0005FFA00BF5037BD4680BD00BF00380240B8
:103100000070004080B500AF1A4B1B4A1A60194B83
:103110004FF482725A60174B00229A60154B0022BE
:10312000DA60144B00221A61124B00225A61114BD3
:103130004FF400729A610F4B0822DA610D4B0022A6
:103140001A620C4B00225A620A4B00229A62094B07
:103150000A22DA620748FEF7F8FD0346002B14BF87
:1031600001230023DBB2002B01D000F021FA00BFC5
:1031700080BD00BF980000200030014080B592B0B3
:1031800000AF07F1380300221A605A609A60DA60D3
:1031900007F1300300221A605A6007F12003002271
:1031A0001A605A609A60DA603B1D00221A605A6009
:1031B0009A60DA601A615A619A614A4B4FF0804214
:1031C0001A60484B29225A60464B00229A60454BB0
:1031D000454ADA60434B00221A614248FFF7B6F9CC
:1031E0000346002B14BF01230023DBB2002B01D0C8
:1031F00000F0DEF94FF48053BB6307F13803194642
:103200003848FEF7C1FF0346002B14BF01230023FB
:10321000DBB2002B01D000F0CBF93248FFF7CAF93E
:103220000346002B14BF01230023DBB2002B01D087
:1032300000F0BEF92B48FFF7A3F90346002B14BF9B
:1032400001230023DBB2002B01D000F0B1F90023F1
:103250003B6380237B6307F1300319462148FFF766
:103260008DFB0346002B14BF01230023DBB2002B90
:1032700001D000F09DF900233B6201237B62002313
:10328000BB620023FB6207F12003002219461548A8
:10329000FFF7E4F90346002B14BF01230023DBB240
:1032A000002B01D000F084F900237B6042F2107300
:1032B000BB600023FB6000237B613B1D0422194699
:1032C0000848FFF783FA0346002B14BF01230023AD
:1032D000DBB2002B01D000F06BF900BF4837BD46D0
:1032E00080BD00BFF000002000286BEE80B592B0DA
:1032F00000AF07F1380300221A605A609A60DA6062
:1033000007F1240300221A605A609A60DA601A6199
:1033100007F11C0300221A605A603B4600221A6023
:103320005A609A60DA601A615A619A61404B414A68
:103330001A603F4B29225A603D4B00229A603C4B59
:103340003D4ADA603A4B00221A613948FFF7FEF82D
:103350000346002B14BF01230023DBB2002B01D056
:1033600000F026F94FF48053BB6307F13803194688
:103370002F48FEF709FF0346002B14BF012300234B
:10338000DBB2002B01D000F013F92948FFF7F8F861
:103390000346002B14BF01230023DBB2002B01D016
:1033A00000F006F904237B620023BB6207F12403CB
:1033B00019461F48FEF7A1FF0346002B14BF012347
:1033C0000023DBB2002B01D000F0F2F80023FB61F8
:1033D00000233B6207F11C0319461548FFF7CEFA9C
:1033E0000346002B14BF01230023DBB2002B01D0C6
:1033F00000F0DEF800233B6042F210737B60002394
:10340000BB6000233B613B46042219460848FFF796
:10341000DDF90346002B14BF01230023DBB2002B90
:1034200001D000F0C5F800BF4837BD4680BD00BFE1
:103430002C010020000C004000286BEE80B500AF8E
:103440000F4B104A1A600E4B29225A600C4B002277
:103450009A600B4B4FF44872DA60094B00221A61F4
:103460000748FFF773F80346002B14BF012300231E
:10347000DBB2002B01D000F09BF800BF80BD00BF85
:10348000680100200044014080B500AF134B144A8E
:103490001A60124B4FF4E1325A60104B00229A60CE
:1034A0000E4B0022DA600D4B00221A610B4B0C22EE
:1034B0005A610A4B00229A61084B0022DA610748E0
:1034C000FFF7C2FB0346002B14BF01230023DBB22E
:1034D000002B01D000F06CF800BF80BDA4010020DB
:1034E0000044004080B588B000AF07F10C03002213
:1034F0001A605A609A60DA601A610023BB60294A38
:10350000284B1B6B43F004031363264B1B6B03F028
:103510000403BB60BB6800237B60224A214B1B6B0A
:1035200043F0010313631F4B1B6B03F001037B602C
:103530007B6800233B601B4A1A4B1B6B43F0020362
:103540001363184B1B6B03F002033B603B680022C4
:1035500031211548FEF732F9002217211348FEF7F2
:103560002DF93123FB6001233B6100237B610023A4
:10357000BB6107F10C0319460B48FEF73FF8172310
:10358000FB6001233B6100237B610023BB6107F1EA
:103590000C0319460548FEF731F800BF2037BD4639
:1035A00080BD00BF00380240000802400004024015
:1035B00080B400AF00BFBD465DF8047B70470000DB
:1035C00080B584B002AF786039607B68012B1BD175
:1035D0003B684FF6FF72934216D10D4800F092F906
:1035E0000C4A0D490A4803F0E2FC0C4B01930023FE
:1035F0000093022302220121094800F081FB054AC1
:103600000849074803F0D3FC00BF0837BD4680BD1A
:10361000E4010020000000202D390008980000205F
:103620005C0200200947000880B500AF4FF6FF712B
:103630000120FFF7C5FF80BD82B00C4B0021009137
:103640005A6C42F480425A645A6C02F480420092EE
:10365000009A01911A6C42F080521A641B6C03F0BC
:1036600080530193019B02B0704700BF00380240B5
:1036700010B5044688B01422002103A804F0F1FB21
:103680002268144B9A4222D103F584330021019120
:103690005A6C114842F480525A645A6C02F48052B7
:1036A0000192019A02911A6B42F001021A631B6B9C
:1036B00003F001030293029BE0230393022304938C
:1036C0000323069303A905230793FDF797FF08B08B
:1036D00010BD00BF003001400000024010B51422B0
:1036E0008AB0044600210DEB020004F0BAFB236807
:1036F000B3F1804F29D103F50E33002401941A6CE5
:10370000274842F001021A641A6C02F00102019289
:10371000019A02941A6B42F001021A631B6B03F0C8
:10372000010302930222029B0692012305A905933D
:103730000993FDF763FF1C2022462146FDF708FF91
:103740001C20FDF739FF0AB010BD164A934211D173
:10375000154B00220392196C41F0080119641B6C8F
:1037600003F00803039332200121039BFDF7F0FED1
:103770003220E6E70D4A9342E5D10B4B002204923A
:10378000596C41F4003159645B6C03F400330493C9
:1037900019200621049BFDF7DBFE1920D1E700BFAD
:1037A00000000240000C004000380240004401408C
:1037B00010B5044688B01422002103A804F051FB80
:1037C0002268154B9A4224D103F5FA330021019166
:1037D0001A6C124842F400321A641A6C02F4003275
:1037E0000192019A02911A6B42F001021A631B6B5B
:1037F00003F001030293029B0C230393022304931F
:10380000012305930323069303A907230793FDF7D9
:10381000F5FE08B010BD00BF0044004000000240AB
:1038200080B400AF00BFBD465DF8047B704780B434
:1038300000AFFEE780B400AFFEE780B400AFFEE764
:1038400080B400AFFEE780B400AF00BFBD465DF8B6
:10385000047B704780B400AF00BFBD465DF8047BB9
:10386000704780B400AF00BFBD465DF8047B704771
:1038700080B500AFFDF748FE00BF80BD80B500AF4A
:103880000248FEF75CFD00BF80BD00BF680100205C
:1038900080B500AF0248FEF752FD00BF80BD00BFFB
:1038A000F000002080B500AF0248FEF748FD00BFE1
:1038B00080BD00BF2C0100200F49D1F8883043F4AF
:1038C0007003C1F888300D4B1A68002042F00102E5
:1038D0001A6098601A6822F0847222F480321A60AA
:1038E000074A5A601A6822F480221A60D8604FF0A2
:1038F00000638B60704700BF00ED00E000380240BD
:103900001030002480B483B000AF78607B68082258
:103910005A627B68044ADA627B6818460C37BD46F7
:103920005DF8047B704700BFCDCC4C3E80B483B0C3
:1039300000AF78607B6818460C37BD465DF8047BA5
:10394000704780B489B000AF786039607B689B6A4B
:10395000002B24D17B6893F83430002B1FD17B6877
:103960009A6A7B680E32396843F822103B6807EE8A
:10397000903AB8EE677A7B68D3ED0B7A67EE277AD8
:10398000FDEEE77A17EE902A7B681A637B683A6847
:10399000DA617B689B6A5A1C7B689A6257E07B6895
:1039A0009A6A7B685B6A9A423EDA7B681B6B1A46AE
:1039B0003B681A447B68DB699A4215D97B681B6BAC
:1039C0001A463B689A1A7B68DB699A420CD27B687C
:1039D0009A6A7B680E32396843F822107B689B6ACA
:1039E0005A1C7B689A6232E07B6800229A627B688C
:1039F000002283F834200023FB617B685A6AFB694C
:103A00009A4209DD7B68FA690E32002143F82210E0
:103A1000FB690133FB61F0E77B689A6A7B680E32D1
:103A2000396843F8221012E07B6800229A627B68B2
:103A3000012283F834207B689A6A7B680E323968E9
:103A400043F822107B689B6A5A1C7B689A627B68E9
:103A500093F83430002B30D00023BB6100237B610E
:103A60007B685A6A7B699A420BDD7B687A690E3201
:103A700053F82230BA691344BB617B6901337B611F
:103A8000EEE77B685B6A1A46BB69B3FBF2F27B68C0
:103A9000DA617B68DB6907EE903AB8EE677A7B689B
:103AA000D3ED0B7A67EE277AFDEEE77A17EE902AD0
:103AB0007B681A637B68DB6935E07B689B6A002B57
:103AC00030DD00233B610023FB607B689A6AFB6862
:103AD0009A420BDD7B68FA680E3253F822303A695D
:103AE00013443B61FB680133FB60EEE77B689B6A34
:103AF0001A463B69B3FBF2F27B68DA617B68DB69EB
:103B000007EE903AB8EE677A7B68D3ED0B7A67EEF2
:103B1000277AFDEEE77A17EE902A7B681A637B68B6
:103B2000DB6900E0002318462437BD465DF8047BBE
:103B3000704780B483B000AF78607B685B695A1CC3
:103B40007B685A617B6800229A6100BF0C37BD46D2
:103B50005DF8047B704780B483B000AF78607B6809
:103B60009B6901337A6893617A681269934234BF22
:103B700001230023DBB2002B03D17B681A697B6829
:103B80009A6100BF0C37BD465DF8047B704780B476
:103B900085B000AFF860B9607A60FB68BA681A60F7
:103BA000FB687A685A6000BF1437BD465DF8047B35
:103BB000704780B483B000AF78607B685B7A83F035
:103BC0000103DBB2002B05D07B6801225A727B68AF
:103BD00000229A6100BF0C37BD465DF8047B704738
:103BE00080B483B000AF78607B6800225A7200BF57
:103BF0000C37BD465DF8047B704780B483B000AFDE
:103C000078607B685B7A18460C37BD465DF8047BAC
:103C1000704780B483B000AF786039607B681B7AEE
:103C2000002B09D17B683A68DA607B681B681B68E7
:103C30007A68D2689A630CE07B681B7A012B08D102
:103C40007B683A68DA607B681B681B687A68D268B0
:103C50009A6300BF0C37BD465DF8047B704780B5A2
:103C600082B000AF78600B46FB707B68FA781A72FE
:103C7000FB78002B0CD17B681B6800211846FEF7EF
:103C800047FE7B681B6804211846FEF713FE0EE012
:103C9000FB78012B0BD17B681B6804211846FEF7CB
:103CA0000BFE7B681B6800211846FEF705FE00BF6F
:103CB0000837BD4680BD80B483B000AF78603960FE
:103CC0007B683A681A617B685B681B6800225A62ED
:103CD0007B685B681B687A68D26802F132017A6897
:103CE0001269B1FBF2F2DA627B685B681B684FF421
:103CF0007A729A6300BF0C37BD465DF8047B70474B
:103D000080B586B002AF7860084611461A46034671
:103D1000FB700B46BB7013467B707B6803F502405B
:103D200058303A7E7978FB6900931346042200F0FC
:103D300049FD7B6803F50240C030BA78F978FB6929
:103D400000931346042200F03DFD7B684FF6FF729E
:103D5000DA800023FB60FB680F2B15DC0023BB60BF
:103D6000BB680F2B0CDC7A68FB681B011A44BB682C
:103D70001344333310221A70BB680133BB60EFE782
:103D8000FB680133FB60E6E77B6808E07B6803F5CE
:103D900002435833184600F005FE03F0EDF91846CB
:103DA0001037BD4680BD0000F0B589B002AF786025
:103DB0000023FB817B6803F50243C033184601F002
:103DC000DEF80346002B00F0F4807B6803F5024325
:103DD000C0330021184601F0B4F80346082B00F068
:103DE000E380082B08DC022B00F0E080042B00F0BD
:103DF000DF80012B0ED0DCE0202B61D0202B02DCF9
:103E0000102B2FD0D5E0402B00F08880802B00F0C5
:103E1000B380CEE07B689B7A002B11D17B680522B2
:103E20009A727B6803F5034304330021184600F0BF
:103E30008CFC03461A7842F00102D2B21A70B8E044
:103E40007B6800229A727B6803F5034304330021E8
:103E5000184600F07AFC03461A7822F00102D2B22A
:103E60001A70A6E07B6803F50240C030002300937F
:103E70000023F022002101F025F97B6803F50240C0
:103E8000C030082300937F231022002101F01AF98B
:103E90007B6803F50243583300220021184601F0E5
:103EA0004BF97B6803F5024058307B685B79194613
:103EB00008237F2201F0E3F87B6802221A7378E07E
:103EC0007B6803F50240C030002300930023F022FA
:103ED000002101F0F7F87B6803F50240C0300423AD
:103EE00000937F232022002101F0ECF87B6801225F
:103EF0001A737B6803F502435833002200211846E9
:103F000001F01AF97B6803F5024058307B685B7852
:103F1000194604237F2201F0B2F84AE07B6803F5DA
:103F20000240C030002300930023F022002101F062
:103F3000C9F87B6803F50240C030022300937F2359
:103F40004022002101F0BEF87B6800221A737B68D2
:103F500003F50243583300220021184601F0ECF823
:103F60007B6803F5024058307B68DB7819460223F2
:103F70007F2201F084F81CE07B6803221A737B68BF
:103F800003F50243583300220021184601F0D4F80B
:103F90007B6803F5024058307B681B781946102374
:103FA0007F2201F06CF804E000BF02E000BF00E0F7
:103FB00000BF7B681B7B042B00F2A58101A252F895
:103FC00023F000BF654000081F400008D93F0008EB
:103FD000D3400008FD4000087B6803F502435833D6
:103FE000184600F0CCFF0346002B00F08E817B6862
:103FF00003F502435833184600F068FF03461A469B
:104000007B689A707B6803F50243583300220021D5
:10401000184601F091F87B6804221A7375E17B68F9
:1040200003F502435833184600F0A9FF0346002B5E
:1040300000F06D817B6803F502435833184600F0A9
:1040400045FF03461A467B685A707B6803F50243B6
:10405000583300220021184601F06EF87B680422D4
:104060001A7354E17B6803F50243583300220021A0
:10407000184601F061F87B6803F5024058307B6810
:10408000DB78194602237F2200F0F9FF7B6803F5F5
:1040900002435833184600F0A7FF0346002B00F0F8
:1040A00038817B6803F502435833184600F00EFF51
:1040B00003461A467B68DA707B6803F5024358337F
:1040C00000220021184601F037F87B6804221A7399
:1040D00022E17B6803F50243583300220021184691
:1040E00001F02AF87B6803F5024358337A681278A6
:1040F00011467F22184600F0ADFF0DE100237B61E1
:104100007B6803F5024359331B781A467B699A4250
:1041100040F3018100233B613B69072B00F3EF80F3
:104120007B699BB2DB009AB23B699BB21344FB8173
:104130007B6803F5024358337A69D2B211461846B8
:1041400000F0FFFE03461A463B6942FA03F303F010
:104150000103002B14BF01230023DBB2002B32D05C
:104160007B681B781D467B685B789E467B689B78E6
:104170001E46F8897B681B789C467B685B781946ED
:104180007B689B781C46FB897A68090121440C01F5
:1041900041F2490101FB0CF121440B444C339B00DB
:1041A00013445B6883F0010279684FEA0E133344CD
:1041B0001C0141F2490303FB05F3234403444C3340
:1041C0009B000B445A607B681B7818467B685B78C1
:1041D00019467A6844F2241303FB00F313440B449A
:1041E00022331B789BB2FA899A4233D17B681B78C1
:1041F0001C467B685B7819467B689B781846FB8970
:104200007A6809010144080141F2490101FB04F106
:1042100001440B444C339B0013445B68002B0CD0CF
:104220007B6803F50243A833FA891146184600F06B
:104230008CFA034602221A705DE07B6803F50243A4
:10424000A833FA891146184600F07FFA034619226E
:104250001A7050E07B681B781C467B685B781946B7
:104260007B689B781846FB897A680901014408013C
:1042700041F2490101FB04F101440B444C339B0022
:1042800013445B68002B1BD07B68DB789BB2FA89F8
:104290009A420BD17B6803F5024058307B68DB788B
:1042A00019460023192200F0EAFE24E07B6803F59A
:1042B00002435833F9891922184600F0CBFE1AE060
:1042C0007B68DB789BB2FA899A420BD17B6803F555
:1042D000024058307B68DB7819460023022200F048
:1042E000CEFE08E07B6803F502435833F9890022CB
:1042F000184600F0AFFE3B6901333B610CE77B6978
:1043000001337B61FCE600BF06E000BF04E000BFB4
:1043100002E000BF00E000BF00BF1C37BD46F0BD9B
:10432000B0B58AB002AF786039607B689B7A052BA4
:1043300000F2028101A252F823F000BF31450008CB
:10434000394500085543000839450008394500083B
:10435000BF4400087B681B7918463B6899697A4B13
:10436000A3FB01231A0913465B001344DB00CA1A9E
:10437000D1B27A6844F2241303FB00F313443233BE
:104380000A461A703B689B69002B0CBF012300236F
:10439000DBB2002B03D07B689A787B685A717B680C
:1043A0001B7919467A6844F2241303FB01F3134482
:1043B00032331B78002B52D10023FB61FB690F2B9A
:1043C0004DDC7B681B79796844F2241202FB03F20E
:1043D0001144FA690A44223212780132D0B2796863
:1043E00044F2241202FB03F21144FA690A44223215
:1043F000014611707A6844F2241101FB03F31A4458
:10440000FB69134422331A787B681B791D467B684D
:104410005B791C467968FB69180144F2241303FB9D
:1044200005F303440B44234433331B789A420CBFF7
:1044300001230023DBB2002B0DD07B681B791946CA
:104440007A6844F2241303FB01F31A44FB69134412
:10445000223300221A70FB690133FB61AEE73B682F
:104460009969394BA3FB01231A0913465B001344D6
:10447000DB00CA1A3B689B693349A1FB03131B0984
:1044800007F10800009313465322304903F0F2FD70
:1044900007F108010A2303222D48FEF703FC3B68BD
:1044A0005B6907F108004D222A4903F0E3FD07F19B
:1044B00008010A2302222648FEF7F4FB3FE0386891
:1044C000FFF79BFB0346002B38D00023BB61BB6981
:1044D0000F2B11DC7B681B7919467A6844F2241390
:1044E00003FB01F31A44BB691344223300221A7000
:1044F000BB690133BB61EAE77B681B7918463B68FF
:104500009969114BA3FB01231A0913465B0013445D
:10451000DB00CA1AD1B27A6844F2241303FB00F319
:10452000134432330A461A707B6802229A7205E0FD
:104530003868FFF755FB02E000BF00E000BF00BF96
:104540002037BD46B0BD00BFABAAAAAA7C87000831
:10455000A40100208487000890B589B000AF78607E
:104560007B689B7A022B40F0C2800023FB770023FC
:10457000BB61BB69012B57DC7B681B7919467A68E4
:1045800044F2241303FB01F31A44BB69134422339E
:104590001B78FB737B681B791C467B685B7918462C
:1045A000FB7B7A68B96909010144080141F24901BC
:1045B00001FB04F101440B444C339B0013445B6842
:1045C0007A6812791046796844F2241202FB00F2EC
:1045D0000A4432321278114601228A401340002BDD
:1045E00014D00122BB6902FA03F39BB201221946DF
:1045F0004148FDF7E3F80122BB6902FA03F35AB21E
:1046000097F91F3013435BB2FB7709E00122BB69C6
:1046100002FA03F39BB2002219463748FDF7CEF8A1
:10462000BB690133BB61A4E70023FB7500233B6139
:104630003B69072B45DC7B681B7918463B690833CF
:10464000796844F2241202FB00F20A441344223334
:104650001B78FB737B681B791C463B6903F10801DF
:104660007B685B791846FB7B7A6809010144080185
:1046700041F2490101FB04F101440B444C339B001E
:1046800013445B687A6812791046796844F2241200
:1046900002FB00F20A4432321278114601228A40AB
:1046A0001340002B09D001223B6902FA03F35AB2EE
:1046B00097F9173013435BB2FB753B6901333B61DC
:1046C000B6E70E4B1B78FA7D9A4210D00B4AFB7D61
:1046D0001370FB7D07F10C005422094903F0CAFC5A
:1046E00007F10C010A2302220648FEF7DBFA00BF9D
:1046F0002437BD4690BD00BF0004024088850020DD
:1047000084870008A401002080B582B000AF7860E3
:104710007B6803F50243C033184600F043F97B6819
:1047200003F502435833184600F03CF97B6808E073
:104730007B6803F502435833184600F033F902F062
:104740001BFD18460837BD4680BD80B483B000AF5E
:10475000786039607B681A683B68134418460C37E8
:10476000BD465DF8047B704780B483B000AF7860CD
:1047700039603B6818460C37BD465DF8047B7047CE
:1047800080B483B000AF7860396000BF0C37BD469D
:104790005DF8047B7047000080B500AF0122202146
:1047A0000748FDF70BF8012201210548FDF706F83F
:1047B000012210210248FDF701F800BF80BD00BFB3
:1047C00000080240F0B589B000AF78600846114695
:1047D0001A460346FB700B46BB7013467B707B6822
:1047E0000833184600F0D4FC7B681433184600F0F8
:1047F000FEFC7B682033184600F0CAFC7B682C3333
:10480000184600F0C5FC7B683833184600F0C0FC41
:104810007B684433184600F0BBFC7B685033184675
:1048200000F0B6FC7B685C33184600F0B1FC7B6896
:10483000FA785A707B68BA789A707B687A781A70BE
:104840007B68BA6B5A607B6803F114047B685B7801
:104850001D467B689B781E460023FB7607F11C03F0
:10486000184600F0F3FC07F11C0307F11B0207F1E7
:104870000C00314600F002FD07F10C031A462946F0
:10488000204600F054FD07F10C03184600F08DFCA3
:1048900007F11C03184600F0E5FC7B6803F12000DB
:1048A0007B685B780022194600F07FFD7B6803F18E
:1048B0002C007B685B780022194600F076FD7B684F
:1048C00003F108007B685B780022194600F06DFD5B
:1048D0007B6803F138007B685B78DB0000221946B7
:1048E00000F063FD7B6803F144007B685B78002285
:1048F000194600F05AFD7B6803F150007B685B7835
:10490000DB000022194600F050FD7B6803F15C00DB
:104910007B685B78DB000022194600F046FD7B686F
:104920003CE007F10C03184600F03FFCFFE707F1FD
:104930001C03184600F096FCFFE77B685C331846C2
:1049400000F033FCFFE77B685033184600F02DFC85
:10495000FFE77B684433184600F027FCFFE77B68DD
:104960003833184600F021FCFFE77B682C331846EB
:1049700000F01BFCFFE77B682033184600F015FCB5
:10498000FFE77B681433184600F03EFCFFE77B68C6
:104990000833184600F009FC02F0EEFB18462437F5
:1049A000BD46F0BD80B582B000AF78607B685C33F7
:1049B000184600F0FAFB7B685033184600F0F5FB10
:1049C0007B684433184600F0F0FB7B6838331846A8
:1049D00000F0EBFB7B682C33184600F0E6FB7B68AD
:1049E0002033184600F0E1FB7B681433184600F0D2
:1049F0000BFC7B680833184600F0D7FB7B682AE085
:104A00007B685033184600F0D0FBFFE77B684433E7
:104A1000184600F0CAFBFFE77B683833184600F001
:104A2000C4FBFFE77B682C33184600F0BEFBFFE7B2
:104A30007B682033184600F0B8FBFFE77B6814332F
:104A4000184600F0E1FBFFE77B680833184600F0EA
:104A5000ACFB02F091FB18460837BD4680BD000054
:104A600080B584B002AF78607B6858680A230093F1
:104A700003230E4A0E49FDF7A5F9002201210D4836
:104A8000FCF79CFE012201210A48FCF797FE002258
:104A900010210848FCF792FE012210210548FCF77E
:104AA0008DFE00BF0837BD4680BD00BF8C8500204D
:104AB00090850020000802402DE9F04F8DB000AF36
:104AC000F860B9606A467A60FA685278501EB86237
:104AD0000246013211464FF000024FEAC20B4BEA88
:104AE000517B4FEAC10A0246013211464FF00002E3
:104AF0004FEAC20949EA51794FEAC1080246013238
:104B00000732D208D200ADEB020D6A4600327A625B
:104B1000FA685278501E38620246013211464FF050
:104B20000002D60046EA5176CD0002460132114617
:104B30004FF00002D40044EA5174CB000346013325
:104B40000733DB08DB00ADEB030D6B460033FB6185
:104B5000BB68B04A82FB03125210DB17D31AFB76F4
:104B6000AD4B1B780133DAB2AB4B1A70002387F8D8
:104B70002E3097F82E30FA685278934280F29E8158
:104B8000002387F82D3097F82D30072B00F3BA80DB
:104B900097F82E30DA0097F82D3013447B61FB68CC
:104BA0005C337A6911461846FFF7CFFD03461B7840
:104BB000002B14BF01230023DBB2002B62D0FB6863
:104BC0005C337A6911461846FFF7BFFD03461A7831
:104BD000FB7EB3FBF2F102FB01F29B1ADBB2002B6E
:104BE00014BF01230023DBB2002B38D08A4B1B7883
:104BF0001C46FB6850337A6911461846FFF7A5FD3D
:104C000003461B789C42B4BF01230023DBB2002B78
:104C100012D097F82E3097F82E20F9698A5C51B29D
:104C200097F82D20012000FA02F252B20A4352B244
:104C3000D1B2FA69D1545FE097F82E3097F82E2060
:104C4000F9698A5C51B297F82D20012000FA02F22E
:104C500052B20A4352B2D1B2FA69D1544CE097F839
:104C60002E3097F82E20F9698A5C51B297F82D20E2
:104C7000012000FA02F252B20A4352B2D1B2FA69EA
:104C8000D15439E0644B1B781C46FB6850337A6979
:104C900011461846FFF759FD03461B789C42B4BFE6
:104CA00001230023DBB2002B12D097F82E3097F8A7
:104CB0002E20F9698A5C51B297F82D20012000FA64
:104CC00002F252B20A4352B2D1B2FA69D15413E09D
:104CD00097F82E3097F82E20F9698A5C51B297F830
:104CE0002D20012000FA02F252B2D24352B20A4001
:104CF00052B2D1B2FA69D15497F82D30013387F806
:104D00002D3040E7444B1B787F2B02D1424B0022D1
:104D10001A70FB681B785A1C97F82E301344C3F1A5
:104D20000304FB68443397F82E2011461846FFF71A
:104D30000CFD03461A7897F82E30F969CB5C1343C3
:104D4000DAB2364B1A5597F82E40FB68203397F8A5
:104D50002E2011461846FFF7F8FC03461A787B6AA6
:104D60001A55FB68203397F82E2011461846FFF796
:104D7000ECFC0346FF221A70FB68143397F82E20D0
:104D80001146184600F04CFB0446FB68083397F8C0
:104D90002E2011461846FFF7D8FC03461B7819460B
:104DA0002046FFF7D2FC014697F82E30FA681278B9
:104DB00013441B4AD35C0B70002387F82F3097F8FD
:104DC0002F30FA68927893422CDAFB68143397F804
:104DD0002E201146184600F023FB024697F82F308C
:104DE00019461046FFF7B1FC03461C78FB682033D8
:104DF00097F82E2011461846FFF7A7FC03461A78AD
:104E00002240D2B21A7097F82F30013387F82F3032
:104E1000D5E700BFABAAAA2A938500209085002081
:104E20008C850020FB68083397F82E201146184621
:104E3000FFF78BFC03461A780132D2B21A70FB6876
:104E4000083397F82E2011461846FFF77EFC0346DC
:104E50001B781A46FB689B789A42ACBF012300235B
:104E6000DBB2002B0AD0FB68083397F82E201146DE
:104E70001846FFF76AFC034600221A70FB682C33C1
:104E800097F82E2011461846FFF75FFC0446FB6892
:104E9000203397F82E2011461846FFF756FC03469C
:104EA0001A7897F82E30796ACB5C5340DBB22370C6
:104EB00097F82E30013387F82E305AE6D7F804D011
:104EC00000BF3437BD46BDE8F08F00BF80B584B069
:104ED00000AF78600023FB73FB7B7A6852789342C3
:104EE0002ADA0023BB60BB68072B21DC7B682C33EC
:104EF000FA7B11461846FFF728FC03461B781A4632
:104F0000BB6842FA03F303F00103002B14BF012333
:104F10000023DBB2002B07D0FB7BDB00DAB2BB68DF
:104F2000DBB21344DBB208E0BB680133BB60DAE7F5
:104F3000FB7B0133FB73CFE7FF2318461037BD46D9
:104F400080BD90B583B000AF78600B46FB707B6886
:104F50002C33FA7811461846FFF7F7FB03461C7806
:104F60007B682033FA7811461846FFF7EEFB0346BC
:104F70001B782340DBB218460C37BD4690BD90B578
:104F800085B000AF78600023FB730023BB73BB7B4D
:104F90007A68527893421DDA7B682C33BA7B1146CB
:104FA0001846FFF7D2FB03461C787B682033BA7B98
:104FB00011461846FFF7C9FB03461B782340DBB2B6
:104FC0005AB297F90F3013435BB2FB73BB7B0133CB
:104FD000BB73DCE7FB7B002B01D0012300E0002347
:104FE00018461437BD4690BD90B585B000AF7860C7
:104FF0000023FB730023BB73BB7B7A685278934218
:105000001EDA7B682C33BA7B11461846FFF79DFBEE
:1050100003461B781C467B682033BA7B1146184632
:10502000FFF793FB03461B78DB4323405AB297F903
:105030000F3013435BB2FB73BB7B0133BB73DBE706
:10504000FB7B002B01D0012300E00023184614371E
:10505000BD4690BD80B584B000AFF860B96013461E
:10506000FB71FB685033BA6811461846FFF76DFBB9
:105070000246FB79137000BF1037BD4680BD80B576
:1050800084B000AFF860B96011461A460B46FB7158
:105090001346BB71FB685033BA6811461846FFF7D8
:1050A00054FB0246FB791370FB685C33BA68114607
:1050B0001846FFF74AFB0246BB79137000BF103752
:1050C000BD4680BD80B586B000AFF860B9601146BE
:1050D0001A460B46FB711346BB7100237B617B694B
:1050E000072B25DCFA797B6942FA03F303F001030D
:1050F000002B19D0BB68DA007B6913443B61FB6865
:105100005C333A6911461846FFF71FFB024697F8D1
:1051100020301370FB6850333A6911461846FFF788
:1051200014FB0246BB7913707B6901337B61D6E7C0
:1051300000BF1837BD4680BD80B584B000AF786031
:105140000B46FB701346BB700023FB607B685B78EB
:10515000DA00FB689A4217DD7B685033FA68114623
:105160001846FFF7F2FA0246FB7813707B685C334F
:10517000FA6811461846FFF7E8FA0246BB78137042
:10518000FB680133FB60E1E700BF1037BD4680BD1F
:1051900080B582B000AF78607B68184600F05FF998
:1051A0007B6818460837BD4680BDB0B582B000AFF9
:1051B00078607B681C687B685D687B68184600F0D7
:1051C0007BF903461A462946204600F080F97B68A1
:1051D000184600F051F97B6805E07B68184600F03E
:1051E0004BF901F0C9FF18460837BD46B0BD80B580
:1051F00082B000AF78607B68184600F082F97B6867
:1052000018460837BD4680BDB0B582B000AF7860A3
:105210007B681C687B685D687B68184600F0A4F9B1
:1052200003461A462946204600F0A9F97B6818462D
:1052300000F074F97B6805E07B68184600F06EF9B1
:1052400001F09AFF18460837BD46B0BD80B582B060
:1052500000AF7860786800F0A0F97B6818460837DE
:10526000BD4680BD80B582B000AF7860786800F040
:105270009FF97B6818460837BD4680BD80B584B06D
:1052800000AFF860B9607A603B60FB683A68B96863
:10529000184600F098F97A68B968F86800F0AEF935
:1052A000FB6805E0FB68184600F0E6F801F064FFD3
:1052B00018461037BD4680BDF0B583B000AF7860AA
:1052C00039607C68386800F0B2F905463B681846DA
:1052D00000F0C8F90346184600F0B9F903461A462B
:1052E0002946204600F06FF9386800F0C6F90546F7
:1052F000386800F0D6F906467B681C687B6818465B
:1053000000F0DAF8034622463146284600F0DDF97F
:1053100002467B685A607B6805E07B68184600F0AF
:10532000ABF801F029FF18460C37BD46F0BD90B52B
:1053300085B000AFF860B9607A60F86800F0D6F91F
:105340000246BB689A4234BF01230023DBB2002B24
:105350000FD0F86800F0E0F90446F86800F0C6F9EC
:105360000246BB689A1A7B682146F86800F0E5F9A6
:1053700017E0F86800F0BAF90246BB689A428CBFA1
:1053800001230023DBB2002B0BD0FB681968BA683D
:1053900013465B0013449B000B441946F86800F069
:1053A000DDF900BF1437BD4690BD90B585B000AFA4
:1053B000F860B9601346FB71F86800F038F90246EE
:1053C000BB689A4234BF01230023DBB2002B0FD00D
:1053D000F86800F0DBF90446F86800F028F90246A6
:1053E000BB689A1AFB1D2146F86800F0E0F913E04B
:1053F000F86800F01CF90246BB689A428CBF012392
:105400000023DBB2002B07D0FB681A68BB6813448B
:105410001946F86800F0DCF900BF1437BD4690BDAE
:1054200080B483B000AF786039607B6819683A68EF
:1054300013465B0013449B000B4418460C37BD46D3
:105440005DF8047B704780B582B000AF7860786803
:10545000FFF708FF7B6818460837BD4680BD80B55A
:1054600082B000AF78607B68184600F0C9F97B68AD
:1054700018460837BD4680BD80B582B000AF786061
:105480007B6819687B689B681A467B681B68D31A1F
:105490001A46786800F0C9F97B681846FFF7D3FF11
:1054A0007B6805E07B681846FFF7CDFF01F064FEDE
:1054B00018460837BD4680BD80B483B000AF786021
:1054C0007B6818460C37BD465DF8047B704780B595
:1054D00084B000AFF860B9607A60B968F86800F02D
:1054E000B7F900BF1037BD4680BD80B582B000AFB0
:1054F0007860786800F0CEF97B6818460837BD46BA
:1055000080BD80B582B000AF78607B68184600F03F
:10551000ACF97B6818460837BD4680BD80B582B0BF
:1055200000AF78607B6819687B689B681A467B6867
:105530001B68D31A9B100B4A02FB03F31A467868C8
:1055400000F0B4F97B681846FFF7CFFF7B6805E0F1
:105550007B681846FFF7C9FF01F00EFE18460837B2
:10556000BD4680BDABAAAAAA80B483B000AF786064
:105570007B6818460C37BD465DF8047B704780B5E4
:1055800084B000AFF860B9607A60B968F86800F07C
:10559000A0F900BF1037BD4680BD80B483B000AF16
:1055A00078607B6818460C37BD465DF8047B704711
:1055B00080B483B000AF78607B6818460C37BD4676
:1055C0005DF8047B704780B584B000AFF860B960C7
:1055D0007A60FB687968184600F088F9B968F8685D
:1055E00000F09BF9FB6805E0FB681846FFF72BFF0E
:1055F00001F0C2FD18461037BD4680BD90B585B09C
:1056000000AFF860B9607A60FB681C68FB681846F8
:10561000FFF752FF03467A68B968204600F097F911
:105620000246FB685A6000BF1437BD4690BD80B487
:1056300083B000AF78607B685B681A467B681B6844
:10564000D31A18460C37BD465DF8047B704780B40A
:1056500083B000AF78607B6818460C37BD465DF8B4
:10566000047B704780B483B000AF78607B681846D5
:105670000C37BD465DF8047B704780B584B000AF41
:1056800078607B681B68FB6007F10C0207F1080378
:105690001146184600F06CF9BB6818461037BD4635
:1056A00080BD80B584B000AF78607B685B68FB60CC
:1056B00007F10C0207F108031146184600F058F9EB
:1056C000BB6818461037BD4680BD80B584B000AFBA
:1056D000F860B9607A603B607A68B968F86800F091
:1056E00057F9034618461037BD4680BD80B483B0D5
:1056F00000AF78607B685B681A467B681B68D31ACA
:105700009B10044A02FB03F318460C37BD465DF8B4
:10571000047B7047ABAAAAAA80B584B000AF7860BA
:105720007B681A1D07F10C031146184600F042F978
:10573000FB6818461037BD4680BD80B584B000AF09
:10574000F860B9607A603B603B687A68B968F8686D
:1057500000F040F900BF1037BD4680BD90B583B062
:1057600000AF786039607B685C687B681846FFF73B
:10577000FBFE03461A4621463868FFF700FF7B68A8
:105780003A685A6000BF0C37BD4690BD80B584B002
:1057900000AF78607B681A1D07F10C0311461846AC
:1057A00000F0BEFAFB6818461037BD4680BD80B5D4
:1057B00084B000AFF860B9607A603B603B687A689B
:1057C000B968F86800F0BCFA00BF1037BD4680BD6C
:1057D00090B583B000AF786039607B685C687B68A7
:1057E0001846FFF769FE03461A4621463868FFF758
:1057F0006EFE7B683A685A6000BF0C37BD4690BDAC
:1058000080B582B000AF78607868FFF71FFD7B68D5
:1058100000221A607B6800225A607B6800229A602E
:105820007B6818460837BD4680BD80B584B000AFA0
:10583000F860B9607A60BB68002B05D0FB687A68B5
:10584000B968184600F0DCFB00BF1037BD4680BDCC
:1058500080B582B000AF786039603968786800F050
:10586000DEFB00BF0837BD4680BD80B582B000AF0B
:105870007860786800F0DEFB7B6800221A607B6845
:1058800000225A607B6800229A607B6818460837BD
:10589000BD4680BD80B582B000AF7860786800F00A
:1058A000D5FB7B6818460837BD4680BD80B584B0FF
:1058B00000AFF860B9607A60BB68002B05D0FB6868
:1058C0007A68B968184600F0CCFB00BF1037BD46B7
:1058D00080BD80B582B000AF786039603968786883
:1058E00000F0CEFB00BF0837BD4680BD80B582B05A
:1058F00000AF786039603968786800F0D9FB7B6860
:1059000000221A607B6800225A607B6800229A603D
:105910007B6818460837BD4680BD80B582B000AFB1
:10592000786039603968786800F0D0FB02467B689F
:105930001A607B681A687B685A607B681A683B68E3
:105940001A447B689A6000BF0837BD4680BD80B5A9
:1059500084B000AFF860B9607A603B607A68B9687B
:10596000F86800F0C7FB034618461037BD4680BDF7
:1059700080B483B000AF786039603B681A687B6898
:105980001A607B6818460C37BD465DF8047B70478B
:1059900080B586B000AFF860B9607A600123FB750E
:1059A0007A68B968F86800F0B7FB034618461837FC
:1059B000BD4680BD80B483B000AF786039603B687D
:1059C0001A687B681A607B6818460C37BD465DF81C
:1059D000047B7047F0B591B000AFF860B9607A60B1
:1059E0003B607B68002B00F09781FB689B681A4640
:1059F000FB685B68D31A9B10BA4A02FB03F31A4692
:105A00007B689A42C0F0AE8007F1140339681846EB
:105A1000FFF752FCF868FFF77FFE03463B6207F191
:105A2000080207F120031146184600F085FB0346E3
:105A3000BB63FB685B687B63BA6B7B689A424ED939
:105A4000FB6859687A6813465B0013449B005B420D
:105A5000CC18FB685D68FB685E68FB681846FFF75A
:105A600083FD034632462946204600F081FBFB6851
:105A700059687A6813465B0013449B00CA18FB6898
:105A80005A6007F10803184600F084FB03461868C3
:105A90007A6813465B0013449B005B427A6B1344A5
:105AA0007A6B194600F081FB07F10803184600F0F5
:105AB00071FB03461C6807F10803184600F06AFBF7
:105AC000034619687A6813465B0013449B000B4435
:105AD00007F114021946204600F07FFB3CE0FB680A
