:020000040800F2
:1000000000000220B9370008DD320008EB3200089A
:10001000F1320008F7320008FD320008000000004D
:100020000000000000000000000000000333000892
:1000300011330008000000001F3300082D330008B2
:10004000093800080938000809380008093800088C
:10005000093800080938000809380008093800087C
:10006000093800080938000809380008093800086C
:10007000093800080938000809380008093800085C
:10008000093800080938000809380008093800084C
:10009000093800080938000809380008093800083C
:1000A000093800080938000809380008093800082C
:1000B00039330008093800080938000809380008F1
:1000C000093800080938000809380008093800080C
:1000D00009380008093800080938000809380008FC
:1000E00009380008093800080938000809380008EC
:1000F00009380008093800080938000809380008DC
:1001000009380008093800084D330008093800088C
:1001100009380008093800080938000809380008BB
:1001200009380008093800080938000809380008AB
:10013000093800080000000000000000093800082D
:10014000093800080938000809380008093800088B
:10015000093800080938000809380008093800087B
:10016000093800080938000809380008093800086B
:1001700009380008093800080000000000000000ED
:080180000938000809380008E5
:1001900010B5054C237833B9044B13B10448AFF3C1
:1001A00000800123237010BD7400002000000000B7
:1001B0009841000808B5034B1BB103490348AFF34E
:1001C000008008BD00000000780000209841000871
:1001D00001F0FF01102A2BDB10F0070F08D010F8F8
:1001E000013B013A8B422DD010F0070F42B3F6D1FC
:1001F000F0B441EA012141EA014122F007047FF015
:1002000000070023F0E80256083C85EA010586EA6B
:10021000010685FA47F5A3FA87F586FA47F6A5FAA7
:1002200087F68EB9EED1F0BC01F0FF0102F00702B3
:1002300032B110F8013B013A83EA010313B1F8D15E
:100240000020704701387047002D06BF354603383F
:10025000073815F0010F07D1013015F4807F02BF78
:10026000013015F4C03F0130F0BC0138704700BFC9
:1002700053B94AB9002908BF00281CBF4FF0FF310D
:100280004FF0FF3001F0F6B8ADF1080C6DE904CE87
:1002900000F006F8DDF804E0DDE9022304B0704761
:1002A0002DE9F0478C460D460446089E002B51D19F
:1002B0008A4217466DD9B2FA82FEBEF1000F0BD00A
:1002C000CEF1200C01FA0EF520FA0CFC02FA0EF722
:1002D0004CEA050C00FA0EF44FEA174A250CBCFB59
:1002E000FAF81FFA87F90AFB18CC45EA0C4508FB17
:1002F00009F3AB420AD9ED1908F1FF3280F02381EE
:10030000AB4240F22081A8F102083D44ED1AA4B2AC
:10031000B5FBFAF00AFB105544EA054400FB09F965
:10032000A14509D9E41900F1FF3380F00A81A14504
:1003300040F2078102383C44A4EB090440EA08403B
:100340000021002E61D024FA0EF400233460736083
:10035000BDE8F0878B4207D9002E54D0002186E8F3
:1003600021000846BDE8F087B3FA83F1002940F088
:100370008E80AB4202D3824200F2FA80841A65EB8F
:1003800003050120AC46002E3FD086E81010BDE8E2
:10039000F08712B90127B7FBF2F7B7FA87FEBEF173
:1003A000000F34D1EB1B3A0C1FFA87FC0121B3FB81
:1003B000F2F8250C02FB183345EA03450CFB08F361
:1003C000AB4207D9ED1908F1FF3002D2AB4200F27F
:1003D000D1808046ED1AA3B2B5FBF2F002FB1055B6
:1003E00043EA05440CFB00FCA44507D9E41900F1DD
:1003F000FF3302D2A44500F2B8801846A4EB0C04E7
:1004000040EA08409DE731463046BDE8F087CEF12E
:10041000200405FA0EF307FA0EF720FA04F83A0C56
:1004200025FA04F448EA0308B4FBF2F14FEA184550
:1004300002FB11441FFA87FC45EA044501FB0CF35B
:10044000AB4200FA0EF409D9ED1901F1FF3080F04A
:100450008A80AB4240F2878002393D44EB1A1FFA92
:1004600088F5B3FBF2F002FB103345EA034500FBCD
:100470000CF3AB4207D9ED1900F1FF386FD2AB4254
:100480006DD902383D44EB1A40EA01418FE7C1F1D2
:10049000200722FA07F88B4005FA01F448EA030323
:1004A00020FA07FE4FEA134CFD404EEA040EB5FB5E
:1004B000FCF94FEA1E440CFB19551FFA83F844EA75
:1004C000054509FB08F4AC4202FA01F200FA01FA10
:1004D00008D9ED1809F1FF3043D2AC4241D9A9F156
:1004E00002091D442D1B1FFA8EFEB5FBFCF00CFB10
:1004F00010554EEA054400FB08F8A04507D9E4185A
:1005000000F1FF3529D2A04527D902381C4440EA22
:100510000940A4EB0804A0FB02894C45C6464D46A1
:1005200015D312D056B1BAEB0E0364EB050404FAEE
:1005300007F7CB401F43CC40376074600021BDE813
:10054000F0871846F8E69046E0E6C245EAD2B8EBF6
:10055000020E69EB03050138E4E72846D7E7404679
:1005600091E78146BEE7014678E702383C4445E71B
:10057000084608E7A8F102083D442BE703685A0043
:100580004CBF43F0004323F000431844704700BFC2
:1005900061B32DE9F84F01F1FF3A90460646D14686
:1005A000002707EB090404EBD4746410E50071190B
:1005B0000846FFF7E3FFA245834605F108003044F3
:1005C00009D0FFF7DBFFC34500F1FF3005D84045F8
:1005D00009D2671CE5E7C34505D9A74202D004F15B
:1005E000FF39DEE700210846BDE8F88F084670476E
:1005F000012807D0022807D0044B00280CBF18465A
:10060000002070470248704702487047F50C000808
:10061000F90C0008FD0C000830B5244B83B00446EB
:100620008D1E7BB301A92846AFF3008020B301994A
:100630002A46FFF7ADFF0146F0B1FFF79FFF4B6879
:10064000A064012B12D0002B01F1040020DBFFF786
:1006500095FF0023E06423650368002B1CDBFFF794
:100660008DFF00232061184603B030BD00232361B5
:100670000523184603B030BD002323610923184623
:1006800003B030BD0A490B48091AC9100191CFE7E0
:100690000123E0642365DFE7C3F30360FFF7A8FFEE
:1006A0000028206114BF00230923DCE700000000BC
:1006B000BC430008944200080368DA0710B50446FA
:1006C00006D49B0700F1480009D500F051FC2368CF
:1006D000590709D51A070ED5DB0613D510BD00F052
:1006E0003FFC23685907F5D404F1D00000F048FC22
:1006F00023681A07F0D404F5A87000F049FC2368B9
:10070000DB06EBD404F5E870BDE8104000F084BCD3
:10071000036803B103441846704700BF09207047BF
:10072000704700BF70B504460D4608E02B6C63614E
:100730002A462369214601209847082808D1296CB8
:100740002046FFF769FF06460028EFD003F0B9FC0A
:100750000728FBD13046296CFFF7E2FF281D00F087
:10076000F3FB00BF2DE9F0470C1D054692460FCC68
:10077000ADF5727D03AE0FC60FCC0FC60FCC0FC602
:1007800094E80F0002ACD5F80C80D5F8189086E8F4
:100790000F0000232846216C2360FFF73DFFBAF1CC
:1007A000000F074614BF0A2609267FB1A36B46F047
:1007B00010018DE810022A46636401202B46C047D1
:1007C00078BB38460DF5727DBDE8F087236C6B6110
:1007D0004FF4F07221467AA803F060FB2B697AAAE5
:1007E000294630469847889B82468DE8100231465C
:1007F00063642A462B460120C04790B94FF4F0723B
:100800007AA9204603F04AFBBAF1080F06D1216C01
:100810002846FFF701FF09260746C6E7BAF1070F8A
:1008200005D0092738460DF5727DBDE8F0873846BA
:10083000216CFFF775FF03A800F086FB406C704742
:10084000F0B5CB6B0B640E1D0F4604460FCEF9B00E
:1008500001AD0FC50FCE0FC50FCE0FC596E80F0027
:100860004FF0FF3685E80F00009606E023696A46E0
:10087000214698470828054608D110992046FFF7D9
:10088000CBFE0028F2D0092079B0F0BD6846FFF712
:1008900013FF062DF7D139462046FFF743FF00BF6F
:1008A00030B4DD6BC160826119461D64002230BC2A
:1008B00058E700BF70B5C66843690B6426B10122D2
:1008C000FFF750FF03F0FDFB03690A4604460D469F
:1008D000014602209847072807D0082803D1294657
:1008E0002046FFF71FFF03F0ECFB3046296CFFF7B3
:1008F00017FF281D00F028FBC2681AB1CA6B0A64F2
:1009000000222FE79CE700BF704700BF836813B148
:10091000014601201847704700B5042907D8DFE8D1
:1009200001F00309060909000BB90F2A05D90220B5
:100930005DF804FB01205DF804FB00EB8202184621
:100940005368019A13605DF804FB00BF10B584B0D2
:10095000002303AC0A4600941946FFF7DDFF039815
:1009600004B010BD00B5042907D8DFE801F0030981
:10097000060909000BB90F2A05D902205DF804FB0E
:1009800001205DF804FB019900EB820209685160C7
:1009900018465DF804FB00BF10B584B004AC00231A
:1009A00044F8042D0A4600941946FFF7DBFF04B013
:1009B00010BD00BFF0B5D36B1364151D07460E467E
:1009C0000FCDADF50F7D17AC0FC40FCD0FC40FCDFC
:1009D0000FC495E80F004FF0FF3584E80F0016951F
:1009E00010E016A8FFF7D8FF314616A8B84716AA98
:1009F000694678B9049B08209847052804460AD020
:100A0000092807D026996846FFF706FE6A460C219A
:100A10000028E6D0092416A8FFF74EFE20460DF563
:100A20000F7DF0BD2DE9F04F0D46C96C8BB00C1D4C
:100A3000096807919146089400F0030B1E46002BAD
:100A400060D10902032307918DF825608DF82430C9
:100A50002B6DBBF1020F08BFAC6B13F0010340D14B
:100A6000019300F008030393D4F80080B8F1000F5D
:100A700039D0022E43D0B4F8008067880434AB6CC0
:100A800027F0010A0F2148469A44FFF75FFF82458D
:100A900033D828F001039A4450452CBF0020012090
:100AA0007F0007F0020708F0010847EA0807012F56
:100AB0003ED035D3022F1CD1236823F0004202928E
:100AC000BBF1000F76D128B1039900297ED0002A0E
:100AD00000F0A680002B77DB029B013304EB83043C
:100AE000C2E700230193022E3EDDFFF717FE002828
:100AF00040D009200BB0BDE8F08F0020D0E7676838
:100B00000834BCE7022BA3DC0B0CDAB209048DF825
:100B10002530022304EB820407918DF8243097E7F7
:100B2000BBF1000F02D0002840F0BD8004349BE7E9
:100B3000BBF1000F25D1A8B194E80C00991C4FEA35
:100B4000D272D6D005F158010133069100F0A3808E
:100B5000201DFFF7DDFD06AB01462846AFF3008000
:100B6000002877D108347FE707A9484600F0EEFA5D
:100B70000028BED1019B002B5CD108200BB0BDE842
:100B8000F08F0D2148462F6AFFF7E0FE8742E9D13A
:100B9000AB6A9C42E6D12046FFF7F0FC0F210246EB
:100BA0004846FFF7F9FE48462A460021FFF7F4FEC3
:100BB00007209FE70D2148462F6AFFF7C7FE8742AF
:100BC00058D02368002B87DA043485E7029B3BB3B7
:100BD00005F15803271DCDF810B0DDF80C80DDF8C5
:100BE00008A00596A3461C4602E0B245B04616D0C2
:100BF00038460694FFF78CFD06AB014600222846D6
:100C0000AFF3008008F1010604370028EDD0029B05
:100C1000059E43455C46DDF810B0D2D100E05C464D
:100C200048460D21FFF792FE069B2862AC626B627C
:100C300006205FE70F214846FFF788FE0E21024697
:100C40004846FFF7A9FE4846294A0F21FFF7A4FEB0
:100C500007204FE707460D214846FFF777FE022F92
:100C600028621DD12B46069A43F82C2F6B62AC628A
:100C700006203FE7AB6A9C42A3D104220027A318B9
:100C80000299A962EF622A636B632368BB421DDB92
:100C90000123019320E748460D21FFF757FE286204
:100CA000069B6B62E3E72046FFF768FC04340646C8
:100CB000AC632846AFF3008000283FF41AAF4846E3
:100CC00032460F21FFF768FE072013E70846013080
:100CD00004EB8000FFF752FC0F2102464846FFF765
:100CE0005BFE48462A463946FFF756FE072001E7D5
:100CF00000000000002395E6012393E6022391E61D
:100D0000F0B50446C5B004290DD8DFE801F053035F
:100D10000C310F00012B4FEA124695B262D17219C5
:100D2000102A40F29B80022045B0F0BD002BFAD182
:100D3000102AF8D82368D80600F1C68022AE3046C3
:100D4000019200F073F9A06B019A0023012505FAC6
:100D500003F1114203D0016846F823100430013337
:100D6000042BF4D1A063304600F056F90020DBE7F5
:100D7000032BD8D1150C97B2EB19102BD3D82368BD
:100D80001E0700F1B58022AE304600F023F9ED00D9
:100D9000A36B4FB1043D711903EBC70053F8042B4B
:100DA00041F8042F8342F9D13046A36300F0F0F8F4
:100DB0000020B9E7002BB6D1A56B97B2201D012604
:100DC00006FA03F1394203F1010302D029680160F8
:100DD0000435102B00F10400F2D112F400503BD185
:100DE000A563A1E7052B9ED17719202F9BD80F2E45
:100DF00066D92F46002D3AD12A460027002AA06B3B
:100E000072DD00EBC202014644A800EBC6008C383C
:100E100051F8045B40F8045F9142F9D1084697B15C
:100E2000102E324644A938BF102201EBC202A2F5AF
:100E3000C4727900043A00EB810150F8045B42F877
:100E4000045F8842F9D1012B48D00F2EA16333D91A
:100E500017B102A800F094F8002065E70F2E3FF6C6
:100E600062AF00272268D10717D4002F60D0226814
:100E7000510745D4012B4DD00F2E06D822A801933F
:100E800000F07AF8019B002FB6D002A8019300F081
:100E90007BF8019BC6F11002B0E722F00101052B9F
:100EA0002160019320463BD022F0030240F8482BFA
:100EB00000F05AF8019BD8E722A800F059F8C7E7DC
:100EC000102FCED9103FCDE723F01003236004F597
:100ED000E870019200F0AAF8019A2FE70431A163AB
:100EE00022A800F03DF8B7E7002F99D10146AAE704
:100EF00023F00803236004F5A87000F06BF842E7C4
:100F0000204622F0040240F8D02B019300F03CF878
:100F1000019BAFE722A8019300F026F8019BB9E7F7
:100F200041F0020140F8481B00F026F8019B9CE7C5
:100F3000012B03D00F2E3FF65FAF9FE722A801934E
:100F400000F012F8019B57E700F1340191E83800F6
:100F50009C46A6464CF8045D90E8FF0FE54600BDB0
:100F600090EC210B704700BF80EC210B704700BF55
:100F700090EC200B704700BF80EC200B704700BF47
:100F8000D0EC200B704700BFC0EC200B704700BFB7
:100F9000F0EC0201F0EC0211F0EC0221F0EC023175
:100FA000F0EC0241F0EC0251F0EC0261F0EC027165
:100FB000F0EC0281F0EC0291F0EC02A1F0EC02B155
:100FC000F0EC02C1F0EC02D1F0EC02E1F0EC02F145
:100FD000704700BFE0EC0201E0EC0211E0EC0221FE
:100FE000E0EC0231E0EC0241E0EC0251E0EC0261A5
:100FF000E0EC0271E0EC0281E0EC0291E0EC02A195
:10100000E0EC02B1E0EC02C1E0EC02D1E0EC02E184
:10101000E0EC02F1704700BFB0FC0181B0FC01912F
:10102000B0FC01A1B0FC01B1704700BFA0FC018180
:10103000A0FC0191A0FC01A1A0FC01B1704700BF80
:10104000EC4600B52DE900502DE9FF1F4FF00003DD
:101050002DE90C0001A9FFF7F3FBDDF840E012B029
:10106000704700BFEC4600B52DE900502DE9FF1F89
:101070004FF000032DE90C0001A9FFF71BFCDDF880
:1010800040E012B0704700BFEC4600B52DE90050BB
:101090002DE9FF1F4FF000032DE90C0001A9FFF718
:1010A0002BFCDDF840E012B0704700BFEC4600B505
:1010B0002DE900502DE9FF1F4FF000032DE90C0032
:1010C00001ABFFF7EDFBDDF840E012B0704700BF69
:1010D000EC4600B52DE900502DE9FF1F4FF000034D
:1010E0002DE90C0001AAFFF765FCDDF840E012B025
:1010F000704700BF027A1AB9437A43B9B0207047EB
:101100000368013A02721A020260180E70474268C0
:10111000013B10B4437213680321141D01721A02BB
:10112000446002605DF8044B180E704700B585B04E
:1011300003AA0023009219460C22FFF7EDFB039847
:1011400005B05DF804FB00BFF0E700BF2DE9F043F8
:10115000064685B00F464FF000083846FFF7CAFF35
:10116000B028044623D0050627D400230DF10C092E
:10117000194685000D22CDF800903046FFF7CCFBD4
:10118000EDB2039BCDF80090600605F104054CBF5D
:101190005D1BED18002319460D2230460395FFF71D
:1011A000E1FB3846FFF7A6FFB0280446DBD1B8F1D3
:1011B000000F00F0958000201CE000F0F003802B71
:1011C0005DD0902B19D0A02B2CD0B02B3FD0C02BB2
:1011D0006CD000F0F803D02B0BD100F007020132E5
:1011E00042F40022052301213046FFF789FD002843
:1011F000B3D0092005B0BDE8F08300F00D030D2B3E
:10120000F7D003AD002300F00F02194600953046D9
:10121000FFF782FB0023009519460D223046FFF7A9
:10122000A1FB9AE7C24302F007034FF47F621A4121
:10123000010702F47F624FF0000348BF42F480428E
:1012400019463046FFF75CFD0028D2D185E7B1286A
:1012500057D0B22868D0B32800F0958000F0FC0386
:10126000B42BC6D000F007020132012342F4002261
:1012700019463046FFF744FD0028BAD16DE73846DD
:10128000FFF738FF24020443B4F5004FB1D0240126
:101290000023A2B219463046FFF732FD0028A8D13C
:1012A00014F4004F18BF4FF0010856E7C6287DD050
:1012B000C72800F0868000F0F803C02B00F094806F
:1012C000C82800F09F80C92893D13846FFF712FF45
:1012D000020300F00F0002F470220130024381E7A4
:1012E00003AC43460E22414600943046FFF714FB00
:1012F0000094304643460F224146FFF733FB4046F9
:1013000078E73846FFF7F6FE00283FF472AF10F09A
:10131000F0037FF46EAF024619463046FFF7F0FC4B
:1013200000287FF466AF18E700230DF10C090D22A9
:101330001946CDF800903046FFF7EEFA3846FFF731
:10134000D9FE02064FF002040CD5039B00F07F008B
:10135000A040034438460393FFF7CCFE030604F194
:101360000704F2D4039BCDF8009000F07F02A24066
:1013700003F501740023144419460D2230460394EA
:10138000FFF7F0FAE9E63846FFF7B4FE010300F094
:101390000F0001F47021421C01230A433046194614
:1013A000FFF7AEFC00287FF424AFD6E63846FFF7FF
:1013B000A1FE010300F00F0001F47021421C032381
:1013C000EBE73846FFF796FE00283FF412AF10F027
:1013D000F0037FF40EAF024604213046FFF790FC85
:1013E00000287FF406AFB8E600F00F0201320323B5
:1013F00042F4202219463046FFF782FC00287FF491
:10140000F8AEAAE63846FFF775FE00F0F00200F0ED
:101410000F031032013343EA0232E3E610B5C36C26
:1014200084B05A6803208DF80C00DC798DF80D40EB
:1014300012020833084601A901920293FFF786FEC3
:1014400004B010BD08B5FFF77FFE806C08BD00BF7B
:1014500008B5FFF779FEC06CC37900EB8300083054
:1014600008BD00BF08B502F02CFE00BF08B5FFF7AD
:10147000F9FF00BF704700BF38B50E4A0E4B054656
:1014800018784FF47A73B3FBF0F31068B0FBF3F005
:1014900000F094F8044658B90F2D09D802462946A1
:1014A0004FF0FF3000F04AF8044B20461D6038BD75
:1014B000012038BD0C00002004000020080000209E
:1014C00008B50B4B1A6842F400721A601A6842F4AD
:1014D00080621A601A6842F480721A60032000F079
:1014E0001BF80020FFF7C8FF01F052FE002008BDE6
:1014F000003C0240034A044B11681B780B44136004
:10150000704700BFC801002004000020014B18688C
:10151000704700BFC8010020074AD36823F4E06386
:101520001B041B0C43F0BF63000243F4003300F4C0
:10153000E0600343D360704700ED00E0174B30B527
:10154000DC68C4F30224C4F10703251D042B28BF63
:101550000423062D4FF0010505FA03F303F1FF33D1
:101560008CBF033C00241940A14005FA04F4013C5F
:101570002240002842EA01024FEA0212AFBF00F106
:10158000604000F00F00064BD2B2A5BF00F56140ED
:10159000D2B21A5480F8002330BD00BF00ED00E045
:1015A00014ED00E04209012300F01F0003FA00F0EF
:1015B000014B43F82200704700E100E00138B0F130
:1015C000807F0AD2064B074A5860F02182F8231028
:1015D0000020072298601A6070470120704700BF02
:1015E00010E000E000ED00E02DE9F04F85B00B6861
:1015F000DFF8AC81684ADFF8AC91019300234FF02B
:10160000010E019C0EFA03FE0EEA0406B64540F0F8
:10161000AE804C6824F01007022F16D14FEAD30A8F
:1016200000EB8A0A03F0070BDAF820504FEA8B0B25
:101630004FF00F0C0CFA0BFC25EA0C0C0D6905FAA7
:101640000BF545EA0C05CAF820504FEA430A03257A
:10165000D0F800B005FA0AF5ED4304F0030C0BEAEC
:10166000050B0CFA0AFC013F4CEA0B0C012FC0F8E9
:1016700000C011D8876807EA050BCF6807FA0AFC93
:101680004CEA0B078760476827EA0E0EC4F3001781
:101690009F4047EA0E074760C7683D408F6807FADA
:1016A0000AF73D43C560E50061D54FF0000BCDF86A
:1016B0000CB0D8F84470394D47F48047C8F84470EE
:1016C000D8F8447007F480470397039F23F003077B
:1016D00007F1804707F59C3703F0030CD7F808A003
:1016E0004FEA8C0C4FF00F0E0EFA0CFEA8422AEABD
:1016F0000E0E43D005F58065A84241D005F5806502
:10170000A8423FD005F58065A8423DD005F580652B
:10171000A8423BD048453BD005F50065A84239D0EA
:1017200005F58065A84214BF0825072505FA0CF5C4
:1017300045EA0E05BD601568F74314F4803F0CBF01
:101740003D4035431560556814F4003F0CBF3D40E3
:1017500035435560956814F4801F0CBF3D403543F8
:101760009560D568A40254BF3D403543D560013330
:10177000102B7FF444AF05B0BDE8F08F5D46D5E790
:101780000125D3E70225D1E70325CFE70425CDE7DF
:101790000525CBE70625C9E7003C014000000240D3
:1017A00000380240001402400AB181617047090408
:1017B000FBE700002DE9F341044618B9012002B00F
:1017C000BDE8F0810368DD0710D42368980758D47A
:1017D00023681A0700F19A8023685B0700F1B8803C
:1017E000A269002A40F019810020E8E7A64B9A6818
:1017F00002F00C02042A07D09A6802F00C02082AB0
:101800000AD15B68590207D59F4B1B689A03DCD548
:101810006368002BD9D1D1E763689B4DB3F5803F56
:1018200011D12B6843F480332B60FFF76FFE964D88
:1018300006462B689B03C8D4FFF768FE801B64280C
:10184000F7D90320BBE7B3F5A02F04D12B6843F4ED
:1018500080232B60E5E72A6822F480322A602A6818
:1018600022F480222A60002BDFD1FFF74FFE0646CC
:101870002B689F03A9D5FFF749FE801B6428F7D981
:10188000DFE7814B9A6812F00C0F07D09A6802F0DC
:101890000C02082A11D15B685E020ED47A4B1A68DA
:1018A000950702D5E268012A88D11A68216922F0D9
:1018B000F80242EAC1021A608AE7E268734BB2B1E9
:1018C00001221A60FFF722FE6F4D06462B6898072B
:1018D00007D52B68226923F0F80343EAC2032B6083
:1018E00076E7FFF713FE801B0228EFD9A9E71A60FD
:1018F000FFF70CFE644D06462B6899077FF568AF2D
:10190000FFF704FE801B0228F6D99AE76269604B54
:101910007AB101221A60FFF7F9FD5B4D06466B6F45
:101920009F073FF559AFFFF7F1FD801B0228F6D95D
:1019300087E71A60FFF7EAFD534D06466B6F98077D
:101940007FF54AAFFFF7E2FD801B0228F6D978E762
:101950004D4B1A6C12F0805228D101921A6C42F051
:1019600080521A641B6C03F080530193019B012683
:10197000484D2B68D9051BD5A368434D012B27D1B2
:101980002B6F43F001032B67FFF7C0FD3E4D074669
:1019900041F288382B6F9B0739D5002E3FF420AFDA
:1019A000394A136C23F08053136419E70026DFE7EC
:1019B0002B6843F480732B60FFF7A8FD07462B6864
:1019C000DA05D9D4FFF7A2FDC01B0228F7D938E702
:1019D000052B04D12B6F43F004032B67D0E72A6F4C
:1019E00022F001022A672A6F22F004022A67002BE4
:1019F000CAD1FFF78BFD41F2883807462B6F980755
:101A0000CBD5FFF783FDC01B4045F7D919E7FFF79A
:101A10007DFDC01B4045BDD913E71B4DAB6803F0EE
:101A20000C03082B3FF4CAAE1B4E0023022A33607E
:101A300034D1FFF76BFD07462B6899011ED4226A4B
:101A4000E3691343626A43EA8213E26A43EA026388
:101A5000A26A0D4C5208013A43EA02436B6001232B
:101A60003360FFF753FD054623689A013FF5BCAE8E
:101A7000FFF74CFD401B0228F6D9E2E6FFF746FDD2
:101A8000C01B0228D8D9DCE60038024000004742DB
:101A9000800E47420070004060004742FFF736FD6D
:101AA00004462B689B017FF59FAEFFF72FFD001BBF
:101AB0000228F6D9C5E600BF134908B58B6803F0C4
:101AC0000C03042B03D0082B03D0104808BD10488A
:101AD00008BD4A684B68496813F4800314BF0C487A
:101AE0000A48C1F3881118BF002302F03F02A1FB8E
:101AF0000001FEF7BDFB044B5B68C3F301430133F8
:101B00005B00B0FBF3F008BD003802400024F40095
:101B100040787D012DE9F0410D46044610B90120C1
:101B2000BDE8F081444B1A6802F00F028A4228D3C4
:101B300021688F072DD4C80740D43F4B1A6802F0A4
:101B40000F02954266D3226851076CD4130707D55C
:101B50003A4A2169936823F4604343EAC1039360DE
:101B6000FFF7AAFF354B364A9B68C3F30313D35CD8
:101B7000D840344B18600020FFF77EFC0020BDE801
:101B8000F081CAB21A701B6803F00F039942C6D1E4
:101B9000CEE72A4B11F0040F1EBF9A6842F4E052C0
:101BA0009A600E0742BF9A6842F460429A609A684F
:101BB000A06822F0F00202439A60BCE762681F4B03
:101BC000012A1DD11B6813F4003FA8D01B4EB36837
:101BD00023F003031343B360FFF798FC41F2883806
:101BE0000746B368626803F00C03B3EB820FA4D01E
:101BF000FFF78CFCC01B4045F3D90320BDE8F08102
:101C0000911E01291B6802D813F0007FDDE713F055
:101C1000020FDAE7EAB21A701B6803F00F039D4265
:101C20007FF47DAF8FE70549E0688B6823F4E053CC
:101C300003438B608AE700BF003C0240003802404B
:101C4000C54100080C000020044B054A9B68C3F303
:101C50008223D35C034A1068D840704700380240A2
:101C6000D54100080C000020044B054A9B68C3F3D3
:101C70004233D35C034A1068D840704700380240B2
:101C8000D54100080C000020036A23F00103036221
:101C9000036A426870B584690D6824F073042543B3
:101CA0008C6823F0020323430C4CA04209D004F5B6
:101CB0008064A04205D042604A6885614263036245
:101CC00070BDCC688E6923F0080323434C6922F46D
:101CD0004072344323F004032243ECE70000014048
:101CE000036A23F480730362036A426870B5C469AF
:101CF0000D6824F0730425438C6823F4007343EAD1
:101D000004230E4CA04209D004F58064A04205D003
:101D100042604A68C561C263036270BDCC688E6967
:101D200023F4006343EA04234C6922F44052344311
:101D300023F4806342EA0412EAE700BF0000014096
:101D4000036A23F48053036230B5046A4368C269AE
:101D50000D6822F4E64242EA05228D6824F400541C
:101D600044EA0534094DA84209D005F58065A8422A
:101D700005D043604B68C2610364046230BD4D69A5
:101D800023F4804343EA8513F3E700BF00000140DA
:101D9000036848689A6822F0700230B502430C6804
:101DA00022F00702224350289A6021D002D840280E
:101DB00010D030BD60282DD070283DD1CA688C6805
:101DC00098680969224320F47F4042EA01220243D5
:101DD0009A6030BD186A1A6A096922F001021A6213
:101DE0009A6922F0F00242EA01129A61186230BD4B
:101DF00088680D69196A1C6A24F001041C629A69DA
:101E000021F00A0122F0F00242EA051201439A6130
:101E1000196230BD186A8C680D6920F010001862D4
:101E200099691A6A21F4704122F0A00241EA053151
:101E300042EA041299611A6230BD0368DA6842F01E
:101E40000102DA601A6842F001021A60002070474D
:101E50007047704790F83830012B70B54FF002038F
:101E60001CD080F839300368012280F838209A6845
:101E700022F47F4222F077029A600A68402A79D0E1
:101E800019D8102A00F093800AD8002A00F089801F
:101E9000012380F83930002380F83830184670BDAF
:101EA000202A00F08A80302AF2D19A6822F070024B
:101EB00042F0370236E0702A36D01BD8502A42D082
:101EC000602AE5D11C6A4D68CE6824F010041C62BB
:101ED00099691A6A21F4704122F0A00242EA0512BF
:101EE00041EA063199611A629A6822F0700242F062
:101EF000670217E0B2F5805F11D0B2F5005FC7D17D
:101F00008A684D689C68C9682A4324F47F4442EA81
:101F1000012222439A609A6842F4804202E09A6861
:101F200022F007029A60B3E78A684D689C68C96826
:101F30002A4324F47F4442EA012222439A609A68A9
:101F400042F07702EEE74C68CE68196A1D6A25F008
:101F500001051D629A6921F00A0122F0F00242EAAD
:101F6000061221439A6119629A6822F0700242F0C7
:101F70005702D7E74C68CE68196A1D6A25F001053B
:101F80001D629A6921F00A0122F0F00242EA06126B
:101F900021439A6119629A6822F0700242F0470266
:101FA000C0E79A6822F0700242F00702BAE79A6826
:101FB00022F0700242F01702B4E79A6822F0700231
:101FC00042F02702AEE738B590F83830012B0446CE
:101FD0004FF0020315D0012580F8385080F83930D1
:101FE000FFF7D6FE2368DA6822F04002DA60DA688A
:101FF000002022F48042DA6084F8395084F83800F6
:1020000038BD184638BD7047704703681A69910794
:1020100010B504460ED5DA6892070BD56FF00202B0
:102020001A619B6901229B07027677D000F018FDA8
:102030000023237623681A69500710D5DA68510700
:102040000DD56FF004021A619B69022213F4407FE0
:102050002276204668D000F003FD00232376236813
:102060001A6912070FD5DA6810070CD56FF008024D
:102070001A61DB6904229907227620465AD000F0C3
:10208000EFFC0023237623681A69D20610D5DA689C
:10209000D0060DD56FF010021A61DB69082213F427
:1020A000407F227620464BD000F0DAFC00232376D6
:1020B00023681A69D10708D5DA68D20705D56FF009
:1020C00001021A61204600F075FD23681A691006A6
:1020D00008D5DA68110605D56FF080021A6120462E
:1020E00000F0EFFA23681A69520608D5DA6850063C
:1020F00005D56FF040021A612046FFF785FF23687F
:102100001A69910622D5DA6892061FD56FF020026F
:1021100020461A61BDE8104000F0D2BAFFF773FF05
:10212000204600F0FBFC83E7FFF76DFF204600F040
:10213000F5FC92E7FFF767FF204600F0EFFCA0E711
:10214000FFF761FF204600F0E9FCAFE710BD00009B
:102150002E4A0368904212D0B0F1804F0FD0A2F502
:102160007C4290420BD002F58062904207D002F58B
:102170008062904203D002F5784290421DD14A68B5
:1021800023F070031343214A904204D1CA6823F418
:102190004073134328E0B0F1804FF7D01C4A9042BF
:1021A000F4D002F580629042F0D002F58062904255
:1021B000ECD002F578429042E8D0164A9042E5D041
:1021C00002F580629042E1D002F580629042DDD05B
:1021D000A2F598329042D9D002F580629042D5D0D3
:1021E00002F580629042D1D003608B68C3620B68B5
:1021F0008362064B984206D003F58063984202D072
:102200000123436170470B690363F9E70000014054
:10221000000400400040014010B50446A0B190F811
:10222000393003F0FF021BB980F8382000F0CCFFF2
:10223000022384F839302068211DFFF789FF01232C
:1022400084F83930002010BD012010BD10B50446BF
:10225000A0B190F8393003F0FF021BB980F83820A4
:10226000FFF7F6FD022384F839302068211DFFF7BF
:102270006FFF012384F83930002010BD012010BD0C
:1022800010B50446A0B190F8393003F0FF021BB935
:1022900080F83820FFF7DDFD022384F8393020680C
:1022A000211DFFF755FF012384F83930002010BDB0
:1022B000012010BD70B5046A1A4E24F001040462B6
:1022C0008469056AB04224F003041AD0B0F1804F4B
:1022D00017D0A6F57C46B04213D006F58066B04212
:1022E0000FD006F58066B0420BD006F57846B042B6
:1022F00007D006F57056B04203D0A6F59436B0422A
:102300000DD122431B0122F0F002DBB225F00A05B9
:1023100001F00A011A4329438261016270BD44F051
:102320000102EFE700000140F8B590F83830012BCA
:1023300004460D464FF0020019D0012384F83830CE
:1023400084F83900A2B9CB68206806C9FFF7B2FF4C
:102350002368A9689A6922F00C029A619A690A4373
:102360009A610123002084F8393084F83800F8BDE0
:10237000042A8E682368E86882C91FD11A6A22F08D
:1023800010021A629A691D6A22F4407242EA072218
:10239000000380B222F470420901024301F0A0015F
:1023A00025F0A00001439A6119629A6922F4406203
:1023B0009A619A6942EA06269E61D2E7082A1A6A59
:1023C0001CD122F480721A62DA691D6A22F00302BB
:1023D0003A430001C0B222F0F0020902024301F4C4
:1023E000206125F420600143DA611962DA6922F084
:1023F0000C02DA61DA691643DE61B2E722F4805238
:102400001A62DA691D6A22F4407242EA0722000366
:1024100022F4704280B20903104301F4204125F4F4
:1024200020421143D8611962DA6922F44062DA610C
:10243000DA6942EA0626DFE7036A23F01003036243
:10244000036A426870B584690D6824F4E64444EA7E
:1024500005258C6823F0200343EA04130D4CA042A9
:1024600009D004F58064A04205D042604A688561C5
:102470008263036270BDCC688E6923F0800343EAF7
:1024800004134C6922F44062344323F0400342EACF
:102490008402EAE70000014038B590F83830012B9B
:1024A00004464FF0020018D0012384F8383084F835
:1024B00039001D460C2A0BD8DFE802F0070A0A0A89
:1024C000100A0A0A140A0A0A18002068FFF7DCFB3F
:1024D000002084F8395084F8380038BD2068FFF7B0
:1024E000ABFFF5E72068FFF7FBFBF1E72068FFF79C
:1024F00027FCEDE7036A10B501248C4023EA0403AE
:102500000362036A8A401A43026210BD10B5044692
:102510000C290DD8DFE801F0070C0C0C220C0C0C78
:10252000270C0C0C2C000268D36843F00203D36024
:1025300001222068FFF7DEFF2368104A934203D090
:1025400002F58062934203D15A6C42F400425A640D
:102550001A6842F001021A60002010BD0268D368B8
:1025600043F00403E3E70268D36843F00803DEE7BF
:102570000268D36843F01003D9E700BF00000140B0
:10258000FFF7C4BF10B504460C290DD8DFE801F0F1
:10259000070C0C0C360C0C0C3B0C0C0C40000268AD
:1025A000D36823F00203D36000222068FFF7A2FF64
:1025B00023681A4A934203D002F5806293420DD1F8
:1025C000196A41F21112114208D1196A40F24442CB
:1025D000114202BF5A6C22F400425A64196A41F255
:1025E0001112114208D1196A40F24442114203D13A
:1025F0001A6822F001021A60002010BD0268D36838
:1026000023F00403CFE70268D36823F00803CAE786
:102610000268D36823F01003C5E700BF0000014043
:10262000FFF7B0BF10B504460C290DD8DFE801F064
:10263000070C0C0C170C0C0C1C0C0C0C2100026869
:10264000D36843F00203D36020680122FFF752FFF2
:102650002268136843F001031360002010BD026874
:10266000D36843F00403EEE70268D36843F008033D
:10267000E9E70268D36843F01003E4E790F83830E4
:10268000012B10B54FF0020318D080F839300368E1
:102690000C685A68496822F070025A605A682243EE
:1026A0005A609A6822F080029A609A680A439A6097
:1026B000012380F83930002380F83830184610BDE7
:1026C000704770472DE9F0470668C2683369C169F1
:1026D00023F4405313433361044683680069F2686E
:1026E0000343606922F41642034322F00C020B43B9
:1026F0001343F3607369A26923F440731343B1F584
:10270000004F73617A4B7CD19E4203D003F5806306
:102710009E4244D1FFF7A8FA192505FB00F3606833
:102720004FF064094000B3FBF0F3B3FBF9F34FEA59
:102730000318FFF799FA636868435B00B0FBF3F78F
:10274000FFF792FA636868435B00B0FBF3F3B3FBF7
:10275000F9F309FB1373DB003233B3FBF9F35B00CE
:1027600003F4F877FFF780FA626868435200B0FB21
:10277000F2FAFFF779FA636868435B00B0FBF3F3A2
:10278000B3FBF9F309FB13A3DB003233B3FBF9F31B
:1027900003F0070343443B44B360BDE8F087FFF711
:1027A00053FA192505FB00F360684FF064094000F7
:1027B000B3FBF0F3B3FBF9F34FEA0318FFF744FA66
:1027C000636868435B00B0FBF3F7FFF73DFA6368AB
:1027D00068435B00B0FBF3F3B3FBF9F309FB13733E
:1027E000DB003233B3FBF9F35B0003F4F877FFF758
:1027F0002BFA626868435200B0FBF2FAFFF724FA42
:10280000B9E79E4202D03B4B9E4240D1FFF72CFAE3
:10281000676819254FF0640905FB00F3BF00B3FB9F
:10282000F7F3B3FBF9F31F01FFF71EFA6368684380
:102830009B00B0FBF3F8FFF717FA636868439B004F
:10284000B0FBF3F3B3FBF9F309FB13831B01323342
:10285000B3FBF9F303F0F008FFF706FA6268684388
:102860009200B0FBF2FAFFF7FFF9636868439B0040
:10287000B0FBF3F3B3FBF9F309FB13A31B013233F2
:10288000B3FBF9F303F00F0343EA080383E7FFF711
:10289000DBF9676819254FF0640905FB00F3BF00F9
:1028A000B3FBF7F3B3FBF9F31F01FFF7CDF963684F
:1028B00068439B00B0FBF3F8FFF7C6F96368684311
:1028C0009B00B0FBF3F3B3FBF9F309FB13831B018C
:1028D0003233B3FBF9F303F0F008FFF7B5F96268A0
:1028E00068439200B0FBF2FAFFF7AEF9BDE700BF14
:1028F0000010014000140140F8B504460E4617468A
:102900001D4621680B6836EA030301D10020F8BD9B
:102910006B1CF7D095B92368DA6822F4D072DA60BC
:102920005A6922F001025A61202384F8393084F870
:102930003A30002384F838300320F8BDFEF7E6FD76
:10294000C01B8542DDD2E6E710B5044640B390F8DF
:10295000393003F0FF021BB980F8382000F086FC04
:102960002268242384F83930D36823F40053D360D9
:102970002046FFF7A7FE23681A6922F490421A61E5
:102980005A6922F02A025A61DA6842F40052DA6087
:1029900000202023E06384F8393084F83A3010BDF9
:1029A000012010BD2DE9F0411F4690F83930202B51
:1029B00004460D4690464FD100294AD0002A48D0FF
:1029C00090F83830012B47D0012380F838300023AD
:1029D000C363212380F83930FEF798FDA4F82480E2
:1029E0000646A4F82680E38C9BB26BB93B46324680
:1029F00040212046FFF780FFB0B9202384F839300A
:102A000084F83800BDE8F081E38C013B9BB2E3849D
:102A1000A368B3F5805F32463B464FF08001204605
:102A20000ED1FFF769FF10B10320BDE8F0812B88BC
:102A30002268C3F308035360236943B90235D2E720
:102A4000FFF75AFF0028EFD123682A785A60013532
:102A5000C9E70120BDE8F0810220BDE8F081000057
:102A600080B582B000AF78607B681B68B3F1804F9F
:102A700049D1274B1B6800225A62264B5B681B68B2
:102A800000225A62234B1B681B685B6B1946214866
:102A900000F0ABFC0346002B14BF01230023DBB284
:102AA000002B03D01B4800F0DDFD02E0194800F0C8
:102AB000F0FD184800F0FAFD0346002B1CD0154825
:102AC00000F092FD134BDB691946124800F0FAFD45
:102AD0000821104800F04BFE012201210E48FEF7AC
:102AE00063FE012202210C48FEF75EFE0122042152
:102AF0000948FEF759FE06E0064800F075FD08217A
:102B0000044800F034FE00BF0837BD4680BD00BF5A
:102B100090000020480100200004024080B582B0EF
:102B200000AF78607B681B68B3F1804F21D11D4BEB
:102B30001B6800225A621C4B5B681B6800225A62A9
:102B4000194B1B7A002B08D1174800F04DFD0122CC
:102B500001211648FEF728FE0BE0134B1B7A012BD0
:102B600007D1114800F040FD012201210F48FEF776
:102B70001BFE7B681B680E4A93420ED10022012186
:102B80000A48FEF711FE002202210848FEF70CFE5B
:102B9000002204210548FEF707FE00BF0837BD46A6
:102BA00080BD00BF900000204801002000040240CA
:102BB000000C004080B582B000AF78607B681B6875
:102BC000124A93421ED1124800F070FD0346002BBA
:102BD00018D00F4800F01AFD0D4B9B6903F001035C
:102BE000002B04D1012202210A48FEF7DDFD084B2B
:102BF0009B6903F00303002B04D101220421054843
:102C0000FEF7D2FD00BF0837BD4680BD000C004076
:102C1000480100200004024080B594B002AFFEF7E6
:102C20004FFC00F04BF800F03FFA00F0AFF800F076
:102C300065F900F00BFA1B48FFF7FFF8042119486B
:102C4000FFF79EFC174A1849184800F0F9FC0121CB
:102C5000164800F060FD1649144800F033FD1021BD
:102C6000124800F084FD114800F0FCFC0F4B9A69FB
:102C70007B6C9A42FAD00D4B5A690C4B99690B4BFD
:102C8000DB68381D00930B460A4900F0FDFD391D35
:102C9000642340220848FFF785FE044B9B697B6450
:102CA000E4E700BFCC000020900000204801002095
:102CB00080841E00B04100080801002080B594B057
:102CC00000AF07F1200330220021184600F0D4FDA8
:102CD00007F10C0300221A605A609A60DA601A61E8
:102CE0000023BB60274A274B1B6C43F080531364BF
:102CF000244B1B6C03F08053BB60BB6800237B60DC
:102D0000214A214B1B6843F4804313601E4B1B6810
:102D100003F480437B607B6802233B620123FB62F8
:102D200010233B630023BB6307F120031846FEF723
:102D300041FD0346002B14BF01230023DBB2002B0F
:102D400001D000F0F5F90F23FB6000233B61002365
:102D50007B610023BB610023FB6107F10C030021B1
:102D60001846FEF7D7FE0346002B14BF01230023AD
:102D7000DBB2002B01D000F0DBF900BF5037BD46BD
:102D800080BD00BF003802400070004080B592B0A6
:102D900000AF07F1380300221A605A609A60DA60C7
:102DA00007F1300300221A605A6007F12003002265
:102DB0001A605A609A60DA603B1D00221A605A60FD
:102DC0009A60DA601A615A619A61494B4FF0804209
:102DD0001A60474B0F225A60454B00229A60444BC1
:102DE000444ADA60424B00221A614148FFF714FA64
:102DF0000346002B14BF01230023DBB2002B01D0BC
:102E000000F096F94FF48053BB6307F1380319467D
:102E10003748FFF71FF80346002B14BF0123002398
:102E2000DBB2002B01D000F083F93148FFF728FA1C
:102E30000346002B14BF01230023DBB2002B01D07B
:102E400000F076F92A48FFF701FA0346002B14BF79
:102E500001230023DBB2002B01D000F069F900232D
:102E60003B6380237B6307F1300319462048FFF75B
:102E700005FC0346002B14BF01230023DBB2002B0B
:102E800001D000F055F900233B6201237B6200234F
:102E9000BB620023FB6207F120030022194614489D
:102EA000FFF742FA0346002B14BF01230023DBB2D5
:102EB000002B01D000F03CF900237B600E4BBB607F
:102EC0000023FB6000237B613B1D04221946084858
:102ED000FFF7E2FA0346002B14BF01230023DBB205
:102EE000002B01D000F024F900BF4837BD4680BD5B
:102EF0009000002000286BEE00CA9A3B80B592B08B
:102F000000AF07F1380300221A605A609A60DA6055
:102F100007F1240300221A605A609A60DA601A618D
:102F200007F11C0300221A605A603B4600221A6017
:102F30005A609A60DA601A615A619A613F4B404A5E
:102F40001A603E4B0F225A603C4B00229A603B4B6A
:102F50003C4ADA60394B00221A613848FFF75CF9C5
:102F60000346002B14BF01230023DBB2002B01D04A
:102F700000F0DEF84FF48053BB6307F138031946C5
:102F80002E48FEF767FF0346002B14BF01230023E2
:102F9000DBB2002B01D000F0CBF82848FFF756F940
:102FA0000346002B14BF01230023DBB2002B01D00A
:102FB00000F0BEF804237B620023BB6207F1240308
:102FC00019461E48FEF7FFFF0346002B14BF0123DE
:102FD0000023DBB2002B01D000F0AAF80023FB6134
:102FE00000233B6207F11C0319461448FFF746FB18
:102FF0000346002B14BF01230023DBB2002B01D0BA
:1030000000F096F800233B600F4B7B600023BB6011
:1030100000233B613B46042219460848FFF73CFA6F
:103020000346002B14BF01230023DBB2002B01D089
:1030300000F07EF800BF4837BD4680BDCC000020C0
:10304000000C004000286BEE00E40B5480B500AF8C
:10305000134B144A1A60124B4FF4E1325A60104B72
:1030600000229A600E4B0022DA600D4B00221A619A
:103070000B4B0C225A610A4B00229A61084B00222A
:10308000DA610748FFF760FC0346002B14BF0123F9
:103090000023DBB2002B01D000F04AF800BF80BD56
:1030A000080100200044004080B588B000AF07F15F
:1030B0000C0300221A605A609A60DA601A610023D9
:1030C000BB60194A184B1B6B43F001031363164B8B
:1030D0001B6B03F00103BB60BB6800237B60124ADB
:1030E000114B1B6B43F0020313630F4B1B6B03F07D
:1030F00002037B607B68002240F207410B48FEF729
:1031000053FB40F20743FB6001233B6100237B61DB
:103110000023BB6107F10C0319460448FEF764FA6B
:1031200000BF2037BD4680BD003802400004024089
:1031300080B400AF00BFBD465DF8047B704700005F
:1031400080B582B000AF786039607B68012B0CD10C
:103150003B684FF6FF72934207D1064800F026F90C
:10316000054A0649034800F050FB00BF0837BD463A
:1031700080BD00BF4801002000000020D5330008BA
:1031800080B500AF4FF6FF710120FFF7D9FF80BD7A
:1031900082B00C4B002100915A6C42F480425A6478
:1031A0005A6C02F480420092009A01911A6C42F02B
:1031B00080521A641B6C03F080530193019B02B090
:1031C000704700BF0038024010B5044688B0142292
:1031D000002103A800F050FB2368B3F1804F29D1F0
:1031E00003F50E33002400941A6C1D4842F00102CE
:1031F0001A641A6C02F001020092009A01941A6B90
:1032000042F001021A631B6B03F0010301930222D7
:10321000019B0492012303A903930793FEF7E4F9AA
:103220001C2022462146FEF789F91C20FEF7BAF938
:1032300008B010BD0B4A9342FAD10B4B0022029208
:10324000196C41F0080119641B6C03F00803029328
:1032500032200121029BFEF771F93220E6E700BF20
:1032600000000240000C00400038024010B5044647
:1032700088B01422002103A800F0FEFA2268154B42
:103280009A4224D103F5FA33002101911A6C1248B5
:1032900042F400321A641A6C02F400320192019A6C
:1032A00002911A6B42F001021A631B6B03F00103D7
:1032B0000293029B0C23039302230493012305939F
:1032C0000323069303A907230793FEF78DF908B09C
:1032D00010BD00BF004400400000024080B400AFB9
:1032E00000BFBD465DF8047B704780B400AFFEE7C9
:1032F00080B400AFFEE780B400AFFEE780B400AF5B
:10330000FEE780B400AF00BFBD465DF8047B7047A8
:1033100080B400AF00BFBD465DF8047B704780B449
:1033200000AF00BFBD465DF8047B704780B500AFBD
:10333000FEF7E0F800BF80BD80B500AF0248FEF7A1
:1033400064FE00BF80BD00BF9000002080B500AFCC
:103350000248FEF75AFE00BF80BD00BFCC0000202F
:103360000F49D1F8883043F47003C1F888300D4B11
:103370001A68002042F001021A6098601A6822F070
:10338000847222F480321A60074A5A601A6822F462
:1033900080221A60D8604FF000638B60704700BFD6
:1033A00000ED00E0003802401030002480B483B00B
:1033B00000AF78607B6810221A627B68044A9A62C8
:1033C0007B6818460C37BD465DF8047B704700BF2C
:1033D000CDCCCC3D80B483B000AF78607B6818461C
:1033E0000C37BD465DF8047B704780B489B000AFF0
:1033F000786039607B685B6A002B25D17B6893F825
:103400003030002B20D17B685B6A7A680C339B00DC
:1034100013443A685A603B6807EE903AB8EE677A10
:103420007B68D3ED0A7A67EE277AFDEEE77A17EE2E
:10343000902A7B68DA627B683A68DA617B685B6A4B
:103440005A1C7B685A625BE07B685A6A7B681B6A1D
:103450009A4241DA7B68DB6A1A463B681A447B6809
:10346000DB699A4216D97B68DB6A1A463B689A1A6E
:103470007B68DB699A420DD27B685B6A7A680C33A1
:103480009B0013443A685A607B685B6A5A1C7B68ED
:103490005A6235E07B6800225A627B68002283F81A
:1034A00030200023FB617B681A6AFB699A420ADDBF
:1034B0007A68FB690C339B00134400225A60FB6955
:1034C0000133FB61EFE77B685B6A7A680C339B0032
:1034D00013443A685A6013E07B6800225A627B68A2
:1034E000012283F830207B685B6A7A680C339B008A
:1034F00013443A685A607B685B6A5A1C7B685A625C
:103500007B6893F83030002B31D00023BB6100235F
:103510007B617B681A6A7B699A420CDD7A687B69F9
:103520000C339B0013445B68BA691344BB617B692D
:1035300001337B61EDE77B681B6A1A46BB69B3FB0D
:10354000F2F27B68DA617B68DB6907EE903AB8EEED
:10355000677A7B68D3ED0A7A67EE277AFDEEE77A21
:1035600017EE902A7B68DA627B68DB6936E07B685D
:103570005B6A012B31DD00233B610023FB607B682C
:103580005A6AFB689A420CDD7A68FB680C339B0030
:1035900013445B683A6913443B61FB680133FB6089
:1035A000EDE77B685B6A1A463B69B3FBF2F27B6826
:1035B000DA617B68DB6907EE903AB8EE677A7B6880
:1035C000D3ED0A7A67EE277AFDEEE77A17EE902AB6
:1035D0007B68DA627B68DB6900E0002318462437E9
:1035E000BD465DF8047B704780B483B000AF78605F
:1035F0007B685B695A1C7B685A617B6800229A6110
:1036000000BF0C37BD465DF8047B704780B483B0C3
:1036100000AF78607B689A697B681B699A4205D223
:103620007B689B695A1C7B689A6103E07B681A6916
:103630007B689A6100BF0C37BD465DF8047B70471C
:1036400080B485B000AFF860B9607A60FB68BA6892
:103650001A60FB687A685A6000BF1437BD465DF88F
:10366000047B704780B483B000AF78607B685B7A7E
:1036700083F00103DBB2002B05D07B6801225A7274
:103680007B6800229A6100BF0C37BD465DF8047B61
:10369000704780B483B000AF78607B6800225A72B4
:1036A00000BF0C37BD465DF8047B704780B483B023
:1036B00000AF78607B685B7A18460C37BD465DF8D2
:1036C000047B704780B483B000AF786039607B685A
:1036D0001B7A002B09D17B683A68DA607B681B682B
:1036E0001B687A68D2689A630FE07B681B7A012BAB
:1036F0000BD17B681B681B685A6B7B68DA607B6840
:103700001B681B687A68D2689A6300BF0C37BD4695
:103710005DF8047B704780B582B000AF78600B46DF
:10372000FB707B68FA781A72FB78002B0CD17B68EF
:103730001B6800211846FEF775FF7B681B68042193
:103740001846FEF71DFF0EE0FB78012B0BD17B68BE
:103750001B6804211846FEF763FF7B681B68002185
:103760001846FEF75FFF00BF0837BD4680BD80B436
:1037700083B000AF786039607B683A681A617B6813
:103780005B681B6800225A627B685B681B687A680A
:10379000D26802F132017A681269B1FBF2F2DA62A0
:1037A0007B685B681B684FF47A729A6300BF0C37C2
:1037B000BD465DF8047B7047DFF834D0002103E09C
:1037C0000C4B5B58435004310B480C4B42189A4247
:1037D000F6D30B4A02E0002342F8043B094B9A421D
:1037E000F9D3FFF7BDFD00F023F8FFF715FA704796
:1037F00000000220C84300080000002074000020E0
:1038000074000020D0010020FEE70B460146184658
:1038100000F000B810B5054C13462CB10A4601461D
:103820000220AFF3008010BD204610BD0000000054
:1038300070B50D4E0D4CA41BA4100025A54209D156
:103840000B4E0C4C00F0A8FCA41BA4100025A542B4
:1038500005D170BD56F8253098470135EEE756F88A
:10386000253098470135F2E7BC430008BC43000807
:10387000BC430008C443000802440346934200D1FD
:10388000704703F8011BF9E70EB400B59CB04FF484
:1038900002711DABADF81410029006906FF000415C
:1038A0000A48049107914FF6FF7153F8042BADF8C5
:1038B00016100068019302A900F066F8029B00222E
:1038C0001A701CB05DF804EB03B0704710000020C4
:1038D0002DE9F0478E689E4282460C4691469846F6
:1038E00035D88A8912F4906F31D0256809696F1A2A
:1038F0006569022305EB450595FBF3F508F1010326
:103900003B449D4238BF1D46530531D5294600F042
:1039100039FB064650B90C23CAF80030A38943F09E
:103920004003A3814FF0FF30BDE8F0873A4621699C
:1039300000F0B4FAA38923F4906343F08003A381D9
:10394000266165613E44ED1B2660A56046464645FE
:1039500028BF464632464946206800F0AAFAA368C6
:103960009B1BA36023681E4426600020BDE8F087EF
:103970002A4600F065FB06460028E1D12169504641
:1039800000F0B2FAC7E700002DE9F04F9DB0804685
:1039900003938B891C060D4616460FD50B696BB930
:1039A000402100F0EFFA2860286128B90C23C8F8FC
:1039B00000304FF0FF30C5E040236B6100230993D6
:1039C00020238DF8293030238DF82A304FF0010B59
:1039D00037463C4614F8013B002B3CD1B7EB060AB6
:1039E0000BD05346324629464046FFF771FF01305F
:1039F00000F0A380099B534409933B78002B00F00F
:103A00009C8000234FF0FF320493079305920693A6
:103A10008DF853301A93052221785048FCF7D8FBD3
:103A2000671C049BD8B9D90644BF20228DF85320C7
:103A30001A0744BF2B228DF8532022782A2A16D049
:103A4000079A00210A20274601343B78303B092B96
:103A500051D9C9B111E0252BC0D02746B9E73F4A5B
:103A6000801A0BFA00F0184304903C46D3E7039AFF
:103A7000111D12680391002A01DB079204E05242F3
:103A800043F00203079204933B782E2B0ED17B78F0
:103A90002A2B07F1010132D1039B1A1D1B680392E7
:103AA000002BB8BF4FF0FF33023705932C4C397809
:103AB00003222046FCF78CFB38B14023001B03FA9D
:103AC00000F0049B034304930137397825488DF8AF
:103AD000281006227E1CFCF77BFB002835D0224BE9
:103AE000FBB9039B073323F0070308330393099BB8
:103AF0004B4409936CE700FB02320121A3E700234A
:103B0000059318460A240F4601313A78303A092ABB
:103B100003D9002BCAD00590C8E704FB002001237D
:103B2000F1E703AB00932A46104B04A94046AFF3DC
:103B30000080B0F1FF3F8146D9D1AB895B063FF5EC
:103B400038AF09981DB0BDE8F08F03AB00932A464B
:103B5000064B04A9404600F081F8EAE7DD41000881
:103B6000E3410008E741000800000000D1380008E8
:103B70002DE9F04791461F468A680B69DDF82080E1
:103B80009342B8BF1346C9F8003091F84320064667
:103B90000C4612B10133C9F800302368990642BFC0
:103BA000D9F800300233C9F80030256815F0060551
:103BB00007D104F1190AE368D9F800209B1A9D4245
:103BC00029DB94F843302268003318BF01239206A2
:103BD0002ED404F1430239463046C047013021D08B
:103BE0002368E568D9F8002003F00603042B08BF1A
:103BF000AD1AA36822690CBF25EAE575002593423A
:103C0000C4BF9B1AED184FF000091A344D451BD163
:103C10000020BDE8F0870123524639463046C047B0
:103C2000013003D14FF0FF30BDE8F0870135C2E726
:103C3000E1185A1C302081F84300224494F84510C2
:103C400082F843100233C4E7012322463946304646
:103C5000C0470130E6D009F10109D7E72DE9F0436B
:103C600017460A7E85B06E2A984606460C460C9B7F
:103C700001F1430E00F0BC801AD8632A2ED00AD876
:103C8000002A00F0C880582A00F08A8004F142051A
:103C900084F842202AE0642A01D0692AF6D12168FA
:103CA0001A6811F0800F23D0111D1960136827E0E6
:103CB000732A00F0B48008D86F2A2AD0702AE5D180
:103CC0000A6842F020020A6003E0752A21D0782AAF
:103CD000DCD1782284F845206E4964E01A6801F14D
:103CE0004205111D1960136884F842300123A3E0D6
:103CF00011F0400F02F104011960D7D0B2F9003081
:103D0000002B03DA2D225B4284F8432062490A2209
:103D100017E02068196810F0800F03D0081D1860A4
:103D20000B6806E010F0400F01F104001860F7D0B6
:103D30000B8859496F2A14BF0A220822002084F8F0
:103D400043006568A560002DC0F29C80206820F0CB
:103D500004002060002B3FD1002D40F09580754677
:103D6000082A0BD12368DA0708D5236962689A42CA
:103D7000DEBF302305F8013C05F1FF35AEEB05034E
:103D80002361CDF800803B4603AA21463046FFF769
:103D9000EFFE013055D14FF0FF3005B0BDE8F083A4
:103DA00081F845203C492268186812F0800F00F124
:103DB00004051D6001D0036802E05506FBD50388A9
:103DC000D00744BF42F0200222601BB9226822F0D3
:103DD000200222601022B1E77546B3FBF2F002FB2D
:103DE0001033CB5C05F8013D03460028F5D1B7E759
:103DF00008681A68496910F0800F04D0101D186017
:103E00001368196007E010F0400F02F10400186019
:103E10001368F6D01980002323617546B1E71A684C
:103E2000111D19601568626800212846FCF7D0F959
:103E300008B1401B606063682361002384F843304D
:103E40009FE723692A4639463046C0470130A2D051
:103E500023689B0707D5002504F11909E368039A35
:103E60009B1A9D4205DBE068039B9842B8BF184649
:103E700093E701234A4639463046C04701308AD08D
:103E80000135EBE7002BA7D10B7884F8423004F121
:103E9000420565E7FF410008EE41000810B5431EEA
:103EA0000A44914200D110BD11F8014B03F8014FB3
:103EB000F7E7884210B501EB020303D8421E99428E
:103EC0000CD110BD9842F9D28118D21AD34200D138
:103ED00010BD13F8014D01F8014DF7E711F8014B42
:103EE00002F8014FEBE7000038B50546002945D040
:103EF00051F8043C0C1F002BB8BFE41800F0D6F8B2
:103F00001F4A1368104633B9636014602846BDE841
:103F1000384000F0CCB8A3420CD921686218934213
:103F200004BF1A685B68636004BF521822600460B3
:103F3000ECE713465A680AB1A242FAD91968581830
:103F4000A0420BD120680144581882421960DDD18B
:103F5000106852685A6001441960D7E702D90C23EF
:103F60002B60D3E7206821188A4204BF1168526889
:103F7000626004BF091821605C60C7E738BD00BFFC
:103F8000BC01002070B5CD1C25F0030508350C2DB3
:103F900038BF0C25002D064601DBA94203D90C23AE
:103FA0003360002070BD00F081F8234A1468214678
:103FB00091B9224C23681BB9304600F067F82060A5
:103FC0002946304600F062F8431C26D10C233360AA
:103FD000304600F06CF8E4E70B685B1B1AD40B2B3F
:103FE0000FD90B60CD50CC18304600F060F804F1CA
:103FF0000B00231D20F00700C31A1BD05A42E250C9
:1040000070BD8C420DBF63684B686360136018BF5E
:104010000C46E9E70C464968CAE7C41C24F00304CF
:10402000A04205D0211A304600F030F80130CDD042
:104030002560D9E770BD00BFBC010020C001002091
:10404000F8B5074614460E4621B91146BDE8F840BA
:10405000FFF798BF22B9FFF747FF25462846F8BD6E
:1040600000F026F884420FD921463846FFF78AFF30
:1040700005460028F2D031462246FFF70FFF3146B1
:104080003846FFF731FFE9E73546E7E738B5064C34
:10409000002305460846236000F06EF8431C02D159
:1040A000236803B12B6038BDCC01002070477047F6
:1040B00051F8040C0028A0F10400BCBF0B58C01834
:1040C000704708B5062000F02BF8012000F062F8D8
:1040D0001F2938B504460D4604D9162303604FF056
:1040E000FF3038BD426C12B152F821304BB9204636
:1040F00000F030F82A4601462046BDE8384000F07E
:1041000017B8012B0AD0591C03D1162303600120D4
:1041100038BD002442F8254028469847002038BD85
:10412000024B01461868FFF7D3BF00BF1000002004
:1041300038B5074C0023054608461146236000F0B9
:1041400013F8431C02D1236803B12B6038BD00BFB4
:10415000CC01002000F000B8024B58221A604FF04A
:10416000FF307047CC010020024B58221A604FF0FC
:10417000FF307047CC010020044B1968024609B992
:1041800003491960186802441A607047C40100208E
:10419000D0010020FEE70000F8B500BFF8BC08BC65
:1041A0009E467047F8B500BFF8BC08BC9E467047F5
:1041B000204D3A20256420533A20256420503A208F
:1041C0002564200D00000000000000000001020333
:1041D00004060708090000000001020304232D3033
:1041E0002B2000686C4C00656667454647003031FF
:1041F000323334353637383941424344454600304E
:10420000313233343536373839616263646566007C
:1042100001970181B0B0088400000000019701817E
:10422000B0B008840000000001970181B0B008849C
:104230000000000011970181B0B008840000000068
:1042400013970181B0B0088400000000119701812C
:10425000B0B008840000000011970181B0B008845C
:104260000000000007970181B0B008840000000042
:1042700001970181B0B008840000000008B10181FD
:10428000B0B000840000000008B10181B0B000842B
:04429000000000002A
:104294000CC0FF7F010000007CC3FF7FB0A9028037
:1042A40014C4FF7FB0B0A88064C4FF7F0100000085
:1042B40070C4FF7FB0B0AA80A8C4FF7FAE71B28083
:1042C40078C5FF7F0100000074C5FF7FAB3F3880D5
:1042D400CCC5FF7F01000000D8C5FF7FB0B0AA8025
:1042E40014C6FF7F01000000C8C6FF7FAB0EB2807A
:1042F40030C7FF7FB0AF0A80F8C9FF7F010000001C
:10430400FCC9FF7FAB3F04803CCCFF7F0100000071
:1043140018CEFF7F008404802CCEFF7F01000000B4
:1043240028CEFF7FB0AD0480F0D0FF7FB0A803801B
:1043340010D1FF7F44FFFF7F14D1FF7F48FFFF7F31
:1043440020D1FF7F0100000014E7FF7FC0FEFF7F44
:10435400C8E7FF7FC4FEFF7F58E8FF7FC8FEFF7FEA
:10436400B4E8FF7FCCFEFF7F50E9FF7FD0FEFF7FE4
:1043740018EAFF7FD4FEFF7F80EBFF7FD8FEFF7F2C
:10438400C8ECFF7F088497801CEDFF7FD4FEFF7F7D
:104394009CEDFF7F0100000090EFFF7F0884978071
:1043A400BCEFFF7F010000006AF3FF7FC0FEFF7FC8
:0843B400BAF3FF7F01000000D5
:0843BC00B50100088131000881
:0443C400910100085B
:1043C8000000000001000000100000000024F400BC
:1043D80014000020000000000000000000000000A1
:1043E80000000000000000000000000000000000C5
:1043F80000000000000000000000000000000000B5
:1044080000000000000000000000000000000000A4
:104418000000000000000000000000000000000094
:104428000000000000000000000000000000000084
:044438000000000080
:04000005080037B9FF
:00000001FF
